:100000000C9464000C948C000C948C000C94981448
:100010000C9498140C9498140C948C000C94C013A9
:100020000C948C000C948C000C948C000C948C0020
:100030000C948C000C948C000C948C000C948C0010
:100040000C9476130C948C000C9466140C9440144D
:100050000C948C000C948C000C948C000C948C00F0
:100060000C948C000C948C000200000000240027EB
:10007000002A00000000080002010000030407003D
:1000800000000000000000000000002300260029FE
:100090000000000000250028002B000404040404D4
:1000A0000404040202020202020303030303030125
:1000B00002040810204080010204081020010204FC
:1000C000081020000A15AE1711241FBECFEFD8E08C
:1000D000DEBFCDBF11E0A0E0B1E0ECEBF4E302C085
:1000E00005900D92AE38B107D9F722E0AEE8B1E045
:1000F00001C01D92A83FB207E1F710E0C3E6D0E0CF
:1001000004C02197FE010E94201AC236D107C9F708
:100110000E9486150C94511A0C940000FB0120815A
:10012000318198E0A901220F331F87FD216057FF1D
:1001300004C0F2E02F27F0E13F27880F915091F79C
:10014000FB01318320830895833081F028F48130CE
:1001500099F08230A9F008958730A9F08830C9F06D
:100160008430B1F4809180008F7D03C08091800045
:100170008F7780938000089584B58F7784BD08952C
:1001800084B58F7DFBCF8091B0008F778093B000D6
:1001900008958091B0008F7DF9CFCF93DF93282F02
:1001A00030E0F901ED58FF4F8491F901E155FF4F1F
:1001B000D491F901E556FF4FC491CC23A1F08111F0
:1001C0000E94A400EC2FF0E0EE0FFF1FE957FF4F55
:1001D000A591B491EC91ED2381E090E009F480E0E9
:1001E000DF91CF91089580E090E0FACF1F93CF93F5
:1001F000DF93282F30E0F901ED58FF4F8491F9018A
:10020000E155FF4FD491F901E556FF4FC491CC233E
:10021000A9F0162F81110E94A400EC2FF0E0EE0F40
:10022000FF1FEF56FF4FA591B4918FB7F894EC9153
:10023000111108C0D095DE23DC938FBFDF91CF91E1
:100240001F910895DE2BF8CFCF93DF9390E0FC0150
:10025000E155FF4F249185569F4FFC0184918823DF
:10026000C9F090E0880F991FFC01E759FF4FA59155
:10027000B491FC01EF56FF4FC591D49161110DC0AF
:100280009FB7F8948C91209582238C9388812823A2
:1002900028839FBFDF91CF910895623051F49FB7BB
:1002A000F8943C91822F809583238C93E8812E2BA8
:1002B000EFCF8FB7F894EC912E2B2C938FBFEACF12
:1002C0008E3008F08E502091010190E4299F90011A
:1002D00011248770822B80937C0080917A00806447
:1002E00080937A0080917A0086FDFCCF809178001F
:1002F0009091790008952FB7F8946091340270912D
:10030000350280913602909137022FBF0895AF9247
:10031000BF92CF92DF92EF92FF920F931F93CF93F2
:10032000DF936C017B018B01040F151FEB015E0154
:10033000AE18BF08C017D10759F06991D601ED91E9
:10034000FC910190F081E02DC6010995892B79F788
:10035000C501DF91CF911F910F91FF90EF90DF903A
:10036000CF90BF90AF900895FC01538D448D252F01
:1003700030E0842F90E0821B930B541710F0CF963F
:10038000089501970895FC01918D828D981761F071
:10039000A28DAE0FBF2FB11D5D968C91928D9F5F88
:1003A0009F73928F90E008958FEF9FEF0895FC0167
:1003B000918D828D981731F0828DE80FF11D858D1A
:1003C00090E008958FEF9FEF0895FC01918D228DAD
:1003D000892F90E0805C9F4F821B91098F73992732
:1003E000089588E392E00E94E50121E0892B09F459
:1003F00020E0822F089580E090E0892B29F00E9470
:10040000F10181110C9400000895FC01A48DA80F46
:10041000B92FB11DA35ABF4F2C91848D90E0019646
:100420008F739927848FA689B7892C93A089B18966
:100430008C91837080648C93938D848D981306C007
:100440000288F389E02D80818F7D80830895EF926B
:10045000FF920F931F93CF93DF93EC0181E0888F7E
:100460009B8D8C8D98131AC0E889F989808185FF4E
:1004700015C09FB7F894EE89FF896083E889F989F0
:1004800080818370806480839FBF81E090E0DF91F2
:10049000CF911F910F91FF90EF900895F62E0B8D45
:1004A00010E00F5F1F4F0F731127E02E8C8D8E1100
:1004B0000CC00FB607FCFACFE889F989808185FF67
:1004C000F5CFCE010E940502F1CFEB8DEC0FFD2F91
:1004D000F11DE35AFF4FF0829FB7F8940B8FEA8922
:1004E000FB8980818062CFCFCF93DF93EC01888D31
:1004F0008823B9F0AA89BB89E889F9898C9185FD9F
:1005000003C0808186FD0DC00FB607FCF7CF8C912C
:1005100085FFF2CF808185FFEDCFCE010E940502DD
:10052000E9CFDF91CF9108950895DC0115963C91B4
:1005300015976317A0F4262F30E0220F331F16966D
:100540008D919C91280F391FF90180819181DC01E7
:10055000ED91FC910280F381E02DBA010994FA013A
:10056000108281E00895CF93DF93DC0115968C9182
:1005700015976817B0F470E0660F771F16968D9187
:100580009C911797680F791FEB0188819981EC0185
:10059000E881F9810190F081E02DBD01DF91CF91DB
:1005A0000994DF91CF910895DC011296ED91FC91B1
:1005B000618172818381948108958F929F92AF921D
:1005C000BF92CF92DF92EF92FF920F931F93CF9340
:1005D000DF93EC01D62EB42E922EE881F9810484AB
:1005E000F585E02D83E0882EAA24A394C12CEE2467
:1005F000EA94FE2C8701CE010995182F88859985EC
:10060000009769F011110BC0DC01ED91FC91019094
:10061000F081E02D092D2B2D4D2DBE010995812F47
:10062000DF91CF911F910F91FF90EF90DF90CF90CE
:10063000BF90AF909F908F900895AF92CF92EF921E
:100640000F93FC018581081708F5802F90E0880F33
:10065000991FA681B781A80FB91F0D90BC91A02D3D
:1006600012968C91811112C082859385009771F04A
:10067000AC2CCE2CE02E022F9A01AB01BF01DC0185
:10068000ED91FC910190F081E02D09950F91EF9093
:10069000CF90AF90089508959F92AF92BF92CF925E
:1006A000DF92EF92FF920F931F93CF93DF93EC01B2
:1006B0007C0187E6E80EF11CAA24AA948E010D594C
:1006C0001F4F35E0932ECC24CA94DC2C8C899D8955
:1006D000DC01ED91FC910084F185E02D0995892BD9
:1006E00009F4A4C00E947B01F701608371838283B7
:1006F00093838C899D89DC01ED91FC910284F385C3
:10070000E02D0995B82E9F898C3F29F491FD1EC0DC
:1007100092609F8BDBCF8D3FC9F49D7F91609F8B53
:100720001092E3011092E201F8011082118212820C
:1007300013821D8E1E8E1F8E18A2D092E101C092D0
:10074000E00160EE71E00E948E00C0CF90FFBECF4E
:1007500091FF05C0B82E6894B7F89D7F9F8B60EE1F
:1007600071E08B2D0E948E008091E201843088F42C
:100770004D8D5E8D6F8D78A1762F652F542F442778
:100780004B294D8F5E8F6F8F78A38F5F8093E2012F
:100790009DCF843029F49092E201B092DF0196CF90
:1007A0009091DF0193FF16C0292F2370233091F021
:1007B000893080F4D8014D915D916D917C91762FB7
:1007C000652F542F44274B29F801408351836283BE
:1007D0007383DBCF8F3F59F0A092E201B9A2F0E41E
:1007E000FB1508F073CF8F898E7F8F8B6FCF809131
:1007F000E301FE01E80FF11DB2A221E0280F2093D2
:10080000E30139A1231362CF2091E0013091E1018E
:10081000232B09F05BCF2F892E7F2F8BFE01EE5902
:10082000FF4F9083815089A381E08C8FDF91CF911E
:100830001F910F91FF90EF90DF90CF90BF90AF90FE
:100840009F9008950F931F93CF938C01C62F41154E
:10085000510521F0BA018C2F0E948E0084E08C0F8C
:10086000833068F4D80154968D919C91DC01ED9110
:10087000FC910190F081E02D6CEF0995CF77F801A4
:1008800084899589DC01ED91FC910190F081E02D46
:100890006C2FCF911F910F9109948F929F92AF92DD
:1008A000BF92CF92DF92EF92FF920F931F93CF935D
:1008B000DF9300D0CDB7DEB78C018FEF9FEF9A8327
:1008C0008983780120E7E20EF11CF7018081918194
:1008D000A281B3818F3F9F4FAF4FBF4F99F0F80177
:1008E000EC58FF4FD801AE59BF4F8C9190E09595D1
:1008F0008795837020E2829FC001112490819F79A7
:10090000892B808361E0D80156968C910E94F60075
:10091000F80184899589DC01ED91FC910190F081C9
:10092000E02D6DEF0995BE016F5F7F4F8DEF0E9447
:100930008E00F70180809180A280B38054E0F52E74
:100940006B2D772788279927AE014F5F5F4FC8012E
:100950000E942204BA2CA92C982C8824FA94F11015
:10096000EFCFAE014F5F5F4F7801F4E7EF0EF11C60
:10097000D7016C91C8010E942204F701808183FF96
:100980001AC0D80158968D909D90AD90BC905B9701
:1009900024E0F22E6B2D772788279927AE014F5F31
:1009A0005F4FC8010E942204BA2CA92C982C8824DD
:1009B000FA94F110EFCF6801B5E7CB0ED11CF60128
:1009C00060816E5FAE014F5F5F4FC8010E942204DD
:1009D000F12CD6018C91F81670F4F801EF0DF11D91
:1009E000EA58FF4FAE014F5F5F4F6081C8010E9420
:1009F0002204F394EECFBE016F5F7F4F80E00E9430
:100A00008E00BE016F5F7F4F80E00E948E006A8182
:100A100050E040E0C8010E94220450E040E06981BB
:100A2000C8010E942204F80184899589DC01ED91B6
:100A3000FC910680F781E02D099560E0F801868938
:100A40000E94F600D80157968C9157978860579668
:100A50008C930F900F90DF91CF911F910F91FF908A
:100A6000EF90DF90CF90BF90AF909F908F900895C0
:100A70002091F7013091F8012817390771F490910E
:100A8000F5018091F601981741F0E091F501F0E051
:100A9000E156FE4F808190E008958FEF9FEF08951B
:100AA000EF92FF921F93CF93DF93EC012C8D3D8D3E
:100AB0002115310561F481E090E09B838A8390E009
:100AC00080E0DF91CF911F91FF90EF900895E98929
:100AD000FA898889482F40951FB7A8E0B0E050E810
:100AE00090E0762F752309F09F5F56951197C9F70F
:100AF000F894508154235083D9011197F1F758E0AD
:100B0000E62EF12C60FF1EC06081682B6083D90146
:100B10001197F1F7B70175956795515089F790FFD7
:100B200014C09081982B9083D9011197F1F790818F
:100B3000892B80831FBF8C8D9D8D0197F1F781E0FC
:100B400090E0BFCF60816423E1CF90819423EBCF0D
:100B50002091F7013091F8012817390771F480913D
:100B6000F6012091F50190E0805C9F4F821B910976
:100B700060E470E00E940C1A089590E080E008950F
:100B80002091F7013091F80128173907B9F49091B5
:100B9000F5018091F601981789F0E091F501F0E0F8
:100BA000E156FE4F80812091F50130E02F5F3F4FED
:100BB0002F7333272093F50190E008958FEF9FEF77
:100BC000089590E080E008958F929F92AF92BF9237
:100BD000CF92DF92EF92FF920F931F93CF93DF9309
:100BE000EC010E947B016B017C018E85EB85FC850D
:100BF0008C8C9D8CAE8CBF8C0E89843009F047C0E4
:100C00001A89408146952AE0429FC0011124092E8D
:100C1000000CAA0BBB0B880D991DAA1DBB1DA701BB
:100C20009601281B390B4A0B5B0BCA01B901011154
:100C30001EC0238134813695279550E040E00E9404
:100C4000DB19120F193C80F4198B84E68C8BDF9131
:100C5000CF911F910F91FF90EF90DF90CF90BF90B9
:100C6000AF909F908F90089588EC898BEECF25816F
:100C700036813695279550E040E00E94DB19121B23
:100C8000193C18F4198B1C8AE2CF198AFCCF1C89F5
:100C9000C701B601681979098A099B09218130E0E9
:100CA00050E040E00E94DB19011105C0210F2C8BA0
:100CB000253658F6CCCF121B1C8B153620F7C7CF24
:100CC0004F925F926F927F929F92AF92BF92CF921C
:100CD000DF92EF92FF920F931F93CF93DF9300D099
:100CE00000D000D01F92CDB7DEB76C015B01942E0F
:100CF0000E947B012B013C01D60157962C915797FE
:100D0000211116C090968D919D910D90BC91A02DB2
:100D1000B301A201481B590B6A0B7B0BF601828DB4
:100D2000938DB0E0A0E0481759076A077B0778F079
:100D3000D6011D961C911D97123009F49AC008F037
:100D400064C0112309F40AC1113009F479C0D60135
:100D500017968D919C91892B09F441C00E947B01CB
:100D6000F6014380548065807680AB01BC01441954
:100D700055096609770987819085B0E0A0E048179A
:100D800059076A077B0758F10E947B01D601139629
:100D90006D937D938D939C931697ED91FC910280BA
:100DA000F381E02DBE016F5F7F4FC6010995D5012C
:100DB000ED91FC910084F185E02DE12CF12C87016F
:100DC0009E012F5F3F4F482F692DC5010995813046
:100DD00009F083C18AEF90E0F60190878783279618
:100DE0000FB6F894DEBF0FBECDBFDF91CF911F913C
:100DF0000F91FF90EF90DF90CF90BF90AF909F90BA
:100E00007F906F905F904F900895143009F44EC01A
:100E100008F432C1153009F09ACF60E01A968C912F
:100E20000E94F600F60140A251A262A273A21687A8
:100E300082E08587178A80E293E0938F828F87CF45
:100E400060E0F60182850E94F60060E0D601199606
:100E50008C910E94F600F6011687D60140A251A29D
:100E600062A273A280E29EE45B969C938E935A9753
:100E70006ECF61E0F60197858189891708F460E0FB
:100E8000D60156966C93569719968C910E94F6004F
:100E900082E0F601868783E08587178AD60140A223
:100EA00051A262A273A284E690E0DECF61E0F60177
:100EB00082850E94F600D6015C964D925D926D92FD
:100EC0007C925F97F60140A251A262A273A2A1890F
:100ED000A28BA38B16871586868947856A2F70E0BB
:100EE0000384F485E02D811133C0842F90E0DC0170
:100EF000A61BB70B238134810E94261A96958795ED
:100F000077956795D6015B967C936E935A9720816F
:100F10002695F601828D938DFAE02F9F800D911D0D
:100F200011245B969C938E935A9755962C915597C6
:100F30002F5F55962C93442311F0483C29F4885197
:100F40009C4FF601938F828FD60157961C92FFCE4D
:100F5000DB01A41BB10925813681CECFF601222306
:100F600009F46FC0178AC6010E94E405D6015196A4
:100F70008C9151971F968C93F6018189882311F0EB
:100F8000883C19F4D60155961C92F601818D811189
:100F90001FC087819085892BD9F40384F485E02DC7
:100FA000808180FF15C00E947B01D60113966D934E
:100FB0007D938D939C931697D5011296ED91FC919C
:100FC0008081B4E68B9FC0011124F601908787834E
:100FD00060E0D6011A968C910E94F600F601168602
:100FE00081E0858740A251A262A273A284E690E0CC
:100FF000938F828F818D882391F080898983D50199
:10100000ED91FC910280F381E02D9E012F5F3F4F17
:1010100041E0692DC5010995F601118E158AD601A9
:101020001B96ED91FC911C97828155969C9155974A
:10103000981708F48CCE882309F489CE58961C9210
:1010400086CE8785818B9689992391F0148AF60143
:10105000908D911191CF882319F0883C09F08CCFA5
:1010600091E0D60158969C93589753968C9384CFD1
:1010700094E654969C93EBCF61E0F60182850E9442
:10108000F600D6015C964D925D926D927C925F97D0
:10109000F60140A251A262A273A283E0868784E097
:1010A000858786890384F485E02D54962C91549786
:1010B000882329F08181829FC0011124D5CE84E646
:1010C00090E0821B91094181489F9001499F300D1A
:1010D0001124F601338F228F3ACED60118961C9236
:1010E0001E9217977CCE0F931F93CF93DF93EC0143
:1010F0008B018D85811118C0CE010E94E40599896C
:101100008E85823018F48D858230A8F029898F85EC
:10111000281798F080E2F8019083818382E0DF91C4
:10112000CF911F910F910895898D882311F098898F
:10113000E7CF9F85E5CF80E0EECF80E1ECCFCF9386
:10114000DF93EC01F901433041F481819CA19813B4
:1011500003C0928191111BC08CA380818F3FE1F469
:101160008E85833009F41D8691E09F8B823078F460
:101170008E8998EC811101C090E09F8792E09D8755
:10118000988D911104C0882329F080E0898BDF912C
:10119000CF91089588ECFACF893C21F41D8681E037
:1011A0008F8BF5CF8A3C69F49E012D5E3F4FE8811D
:1011B000F9810190F081E02D41E0CE01DF91CF91E6
:1011C0000994893CD0F48F87888D811105C08F8563
:1011D000811115C088EC898B8E858350823048F54B
:1011E000CE010E94E4052E899F85898921111AC0AC
:1011F0009817D0F485E08D87D2CF88ECE4CF883C77
:1012000011F4198AE9CF90E0853608F498EC998BAF
:10121000888B853628F088EC8F8781E0898FDCCF3A
:1012200080E0FACF891730F38E85843009F0AFCF94
:10123000E2CF8F859989891711F082E0DCCF8B8B03
:10124000A6CFDC011B96ED91FC91858196810196DC
:1012500021F484EF91E096838583838194810196C4
:1012600021F484EF91E09483838381818F3F11F493
:1012700085E081838081982F9E7F9E3F11F481704D
:10128000808308957F928F929F92AF92BF92CF9268
:10129000DF92EF92FF920F931F93CF93DF93EC01B6
:1012A000EA85FB858481811112C01B8A1A8A1D8AF6
:1012B0001C8ADF91CF911F910F91FF90EF90DF90EB
:1012C000CF90BF90AF909F908F907F900895742E95
:1012D0006B010E947B014B015C018C859D85AE8575
:1012E000BF8585017401E81AF90A0A0B1B0B2889CE
:1012F0003989A8EEB3E00E94FD196E157F058007BD
:10130000910758F58C869D86AE86BF8683E090E077
:10131000998B888B89850E946001BC01990F880B8D
:10132000990B00919B0110919C0120919D0130919E
:101330009E01600F711F821F931F60939B0170932A
:101340009C0180939D0190939E0120919A012F5FB3
:10135000233008F06AC020939A01EA85FB85238137
:101360002223A9F08E899F89A88DB98D85017401EA
:10137000E81AF90A0A0B1B0B30E0A0E1B7E20E9461
:10138000FD196E157F058007910708F092CF218126
:1013900032812115310599F08E899F89A88DB98DEB
:1013A00085017401E81AF90A0A0B1B0BA8EEB3E0D9
:1013B0000E94FD19E616F7060807190798F4208120
:1013C000222309F476CF8A899B894C895D89841709
:1013D000950709F446C0841B950B2817190611F0D0
:1013E00008F067CFE881F9810280F381E02D68E998
:1013F00071E0CE010995D601ED91FC910084F18553
:10140000E02DE12CF12C870128E931E042E0672D45
:10141000C6010995813021F08A899B899D8B8C8B2F
:101420008E8A9F8AA88EB98E44CF10929A0123E0AB
:1014300030E040E050E00E94DB193B8B2A8B109299
:101440009B0110929C0110929D0110929E01EA85D1
:10145000FB8584812AE0829FC0011124998B888BAF
:101460007CCF90E080E0B9CFFC012389FB01208391
:10147000FC018289FB01818382E00895DC011A96D8
:10148000ED91FC9184818F3F11F48EE18483808102
:101490008F3F11F484E6808381819281019621F44B
:1014A00088E592E09283818383818F3F11F483E00A
:1014B00083830895809105028F3F19F482E380931E
:1014C000050208959F92AF92BF92CF92DF92EF9262
:1014D000FF920F931F93CF93DF938C015B017A01EF
:1014E000922ED0E0C0E06A0181E0C81AD108CE1582
:1014F000DF0579F0C6018C1B9D0B911001C0CE0158
:101500008A0D9B1D0E949319F80181938F012196EA
:10151000EECFDF91CF911F910F91FF90EF90DF9071
:10152000CF90BF90AF909F900895CF93DF93EC0141
:101530004C8150E020E061E070E08A819B810E9454
:10154000620AEA81FB818181928123813481318326
:10155000EA81FB812283EA81FB819383EA81FB811B
:1015600084838091F90181608093F901DF91CF91AB
:1015700008952F923F924F925F926F927F928F9237
:101580009F92AF92BF92CF92DF92EF92FF920F9312
:101590001F93CF93DF93CDB7DEB729970FB6F8949B
:1015A000DEBF0FBECDBFFC014B0129013A01CE8247
:1015B0001F8282819381A481B58184159505A6053A
:1015C000B70529F48681801302C081E08F834282AF
:1015D000538264827582068338E4C32ED12C4AEC90
:1015E000F42EBB24BA9459EC352E68EC262E21E05B
:1015F00044E050E0B601CE0101960E94620A898162
:101600009A81AB81BC818F3F2FEF9207A207B2076F
:1016100009F465C084159505A605B70509F05FC0F6
:1016200020E041E050E0B6016C5F7F4FCE010896AC
:101630000E94620A8885801352C020E041E050E099
:10164000B6016B5F7F4FCE0108960E94620A188533
:101650001E1145C020E041E050E0B6016A5F7F4FB7
:10166000CE0109960E94620A8985AA2009F190E0BC
:1016700023E0959587952A95E1F78770898720E083
:1016800041E050E0B601685F7F4FCE0105960E94B1
:10169000620AE985E730B0F4F0E0EF5AF44F0C94B9
:1016A000201A610B910B930B950B970B990B6F0BFA
:1016B0008770898720E041E050E0B601695F7F4F85
:1016C000E4CF2D82D401ED91FC910280F381E02DD5
:1016D0009E012B5F3F4F43E0612FC4010995B9E0A4
:1016E000CB0ED11C28E6C21621E0D20609F07FCF2E
:1016F00029960FB6F894DEBF0FBECDBFDF91CF9114
:101700001F910F91FF90EF90DF90CF90BF90AF901F
:101710009F908F907F906F905F904F903F902F9011
:1017200008953D82CFCF1D82CDCFBD82CBCF0000AB
:10173000C9CFFD82C7CF0E943B1924E630E040E0CC
:1017400050E00E94A919DC01CB018E529F4FAF4F90
:10175000BF4F0895BF92CF92DF92EF92FF920F9307
:101760001F93CF93DF93EC01062FB42E662371F104
:101770000E947B01FE01E959FF4FC080D180E280C9
:10178000F380AB01BC014C195D096E097F097E0134
:101790002BE6E20EF11CF70180819181B0E0A0E020
:1017A00084179507A607B70760F081E090E0DF9106
:1017B000CF911F910F91FF90EF90DF90CF90BF904E
:1017C00008950E949B0BF7019183808381E0FE01C5
:1017D000E259FF4F8083329680819181A281B3814B
:1017E0008F3F9F4FAF4FBF4F09F44BC0FE01EC58E6
:1017F000FF4F80818370813009F443C010E0B1163F
:1018000009F446C0CE010E944D040E947B016B0189
:101810007C010E947B016C197D098E099F09683C3F
:10182000710581059105E8F4CE010E944C038C8D71
:10183000882379F34D8D5E8D6F8D78A1888D998D7C
:10184000AA8DBB8D481759076A077B0711F71C8EB5
:10185000CE010E948B0C8F8983FDDBCF90E080E06E
:10186000A6CF011102C01F5FCACF0E947B016C1975
:101870007D098E099F09663971058105910598F7E3
:1018800094CFCE010E944D048F89877F8F8BE6CF46
:1018900082E090E08CCF8F92AF92CF92EF92FF9246
:1018A0000F931F93CF93DF93CDB7DEB7342F4091C3
:1018B000F90143FD2EC0FC01E059FF4FE082F182A7
:1018C0000283138348EF3496408344E0319640838B
:1018D0004BE431964083319660833196C08221116A
:1018E00016C022E0482D6A2DFC01E758FF4F330F48
:1018F000330F320F30830E94AA0BDF91CF911F91DB
:101900000F91FF90EF90CF90AF908F90089523E0CC
:10191000E9CF81E0F2CFCF92DF92EF92FF92FC010C
:10192000DC01A159BF4F81E08C9347891D973C9101
:1019300043FF24C0832F90E025E0959587952A9555
:10194000E1F7282F237052968C9190E0959587951A
:101950008370281313C05197CD90DD90ED90FC90CB
:1019600013971D968D919D910D90BC91A02DC81639
:10197000D906EA06FB0611F4477F478B33703130F6
:1019800019F181A1811126C0858D968DA78DB0A1F9
:101990008F3F9F4FAF4FBF4FE9F0CF01E059FF4F4F
:1019A000DC01AD59BF4F4D915D916D917C914083AC
:1019B000518362837383349629E1208331961082A8
:1019C00043E060E00E94AA0B80E0FF90EF90DF9080
:1019D000CF90089581E0F9CF1F93CF93DF93EC016F
:1019E000162F0E949319181739F0612FCE01DF913D
:1019F000CF911F910C949B19DF91CF911F91089566
:101A0000CF92DF92EF92FF920F931F93CF93DF93CA
:101A1000EC010CEF13E060E070E0CB01CC24D62E9B
:101A2000E72EF82EC8010E9493199601282BC701B2
:101A3000B9010F5F1F4F011534E0130779F78B01D0
:101A40009701085E13402109310907311C4F2F4FC0
:101A50003F4F20F06FEF7FEF8FEF92E4688F798F29
:101A60008A8F9B8F0E948A190E949B0BC559DF4F5A
:101A7000998388838091F9018D7F8093F901DF91AB
:101A8000CF911F910F91FF90EF90DF90CF9008952D
:101A90003F924F925F926F927F928F929F92AF92FE
:101AA000BF92CF92DF92EF92FF920F931F93CF934B
:101AB000DF9300D000D0CDB7DEB79C838B838091BD
:101AC000F90180FF34C082FF09C08B819C810E9494
:101AD000000D8091F9018B7F8093F901AB81BC816E
:101AE000ED91FC9111970680F781E02DCD010995CC
:101AF00010E0EB81FC8185811817A0F4812F90E024
:101B0000880F991F0680F781E02DE80FF91F80816B
:101B10009181DC01ED91FC910680F781E02D099522
:101B20001F5FE7CF8091F9018E7F8093F901A8951F
:101B3000312C8B809C80B2E68B0E911C0B811C811A
:101B40000E5D1F4F1A83098344244A94542C32019A
:101B500050E2A52EB12CAB81BC8115968C911597C6
:101B6000381608F0AFC0CD010E944C03EB81FC8118
:101B7000848D882309F45CC0148ED4018C91458D2A
:101B8000568D678D70A1982F9370008D118D228DC9
:101B9000338D933009F069C091A1911166C086958B
:101BA000869586958F5F803209F45BC0F501E81B4E
:101BB000F1097301620104C0CC0CDD1CEE1CFF1C9A
:101BC000EA95D2F7D701C60140275127622773272C
:101BD00084239523A623B723892B8A2B8B2B41F5AE
:101BE00061E0AB81BC8156968C910E94F6008BE43B
:101BF00090E00197F1F7EB81FC8184899589DC0104
:101C0000ED91FC910190F081E02D68EF0995EB8159
:101C1000FC8184899589DC01ED91FC910680F78136
:101C2000E02D099560E0EB81FC8186890E94F60039
:101C3000832D90E0880F991FAB81BC811696ED91A2
:101C4000FC91E80FF91F80819181DC01ED91FC91FD
:101C50000480F581E02D432D6B817C8109953394BF
:101C60007ACF8FEF9FEFDC01AFCF04171507260760
:101C7000370729F04F3F5F4F6F4F7F4FC9F68B817A
:101C80009C810E948B0C882399F221E0EB81FC81DE
:101C9000858D968DA78DB0A18F3F9F4FAF4FBF4FC2
:101CA00009F020E0AB81BC81ED91FC911197028895
:101CB000F389E02D91964C91919769817A81CD01BC
:101CC0000995B6CF1091F90111FD89C00E947B01E1
:101CD000683E73408105910508F481C081E013FDE1
:101CE00075C08FEF9FEFDC01EB81FC81E059FF4F66
:101CF00080839183A283B38388EFEB81FC81EC58CE
:101D0000FF4F808380E1EB81FC81EB58FF4F8083A4
:101D100081E4EB81FC81EA58FF4F8083EB81FC81F9
:101D2000E958FF4F1082EB81FC818089E858FF4F12
:101D30008083AB81BC8151968C915197FD01E7580E
:101D4000FF4F808352968C91529753969C91539754
:101D5000319690833196808358966C915897599616
:101D60007C9159975A968C915A975B969C915B9768
:101D700028E43196208322E4319620836D01BEE76A
:101D8000CB0ED11C27E5F6012083EB80FC80F5E823
:101D9000EF0EF11C2AE0822E912CA12CB12CEC1418
:101DA000FD0471F001E0E01AF108A50194010E9420
:101DB000DB19605DD70111966C93B901CA01EFCFB1
:101DC00043E061E08B819C810E94AA0B91E081112C
:101DD00090E08091F90190FB81F98093F901EB810A
:101DE000FC818485882309F44FC00E947B016B012C
:101DF0007C01AB81BC811C968C919CEE980F92303B
:101E000040F40E94600121E08A3F91053CF020E00F
:101E100005C00E94CD0021E0892BC9F78091FA010D
:101E2000823009F40FC108F0B3C0882309F4D3C08D
:101E3000813009F4DEC0EB81FC818585882321F1A6
:101E40004091E4015091E5016091E6017091E70154
:101E500097018601041B150B260B370BB901A8014E
:101E6000453651056105710578F09091FA0195307C
:101E700008F02CC1923008F048C1992309F439C107
:101E800061E0913009F436C1AB81BC811E968C9122
:101E90001E97811105C01F968C91882309F462C09A
:101EA0000E947B01C090EC01D090ED01E090EE012A
:101EB000F090EF016C197D098E099F096D33710552
:101EC0008105910508F44EC0EB81FC81868588234D
:101ED00019F1978598130BC0DF01A159BF4F9C9151
:101EE000992329F091E0E259FF4F90831C92909141
:101EF000FA01992331F0AB81BC811D969C91891721
:101F000059F0EB80FC80BEE6EB0EF11CF70160811E
:101F10000E94F600D7011C92EB81FC818785882303
:101F2000B9F096858917A1F09091FA01992319F0DB
:101F30009585891769F00B811C8101591F4F1A8300
:101F40000983D8016C910E94F600E981FA81108220
:101F50000E947B016093EC017093ED018093EE0190
:101F60009093EF010F900F900F900F90DF91CF9112
:101F70001F910F91FF90EF90DF90CF90BF90AF90A7
:101F80009F908F907F906F905F904F903F900895BB
:101F9000843009F47BC008F459C0853009F04BCF78
:101FA000211149CFB12CA12C6FEFC5010E94EC0C7F
:101FB0006FEFA61AB60A7CEFA71673E0B706A1F773
:101FC000AB81BC81ED91FC9111970488F589E02DDE
:101FD000CD01099534C0222319F081E08093FA01E4
:101FE000C092E801D092E901E092EA01F092EB019F
:101FF00022CF8091E8019091E901A091EA01B0918E
:10200000EB01B701A601481B590B6A0B7B0BDB01E7
:10201000CA01222351F089389341A105B10508F482
:102020000ACF82E08093FA0106CF85369105A1059B
:10203000B10528F08091F9018D7F8093F90110920C
:10204000FA01F9CE83E0222349F2F5CE8091E8012E
:102050009091E901A091EA01B091EB01B701A601CD
:10206000481B590B6A0B7B0BDB01CA0184369105B7
:10207000A105B10508F4DFCE222311F084E0AECF34
:1020800081319742A105B105D0F6D5CE8091E80106
:102090009091E901A091EA01B091EB01B701A6018D
:1020A000481B590B6A0B7B0BDB01CA018436910577
:1020B000A105B10508F4BFCE222309F2893B9B405C
:1020C000A105B10508F4B7CE85E0ACCF953009F095
:1020D000DBCE4F3E52406105710508F4D5CE0E941B
:1020E000CD0061E0892B09F060E0EB81FC81858502
:1020F00001C060E00E94F600C092E401D092E501C8
:10210000E092E601F092E701BFCE0E94CD0061E0CF
:10211000892B09F060E0AB81BC811D968C91EACFE0
:10212000CF93DF935091F90153FD28C0EC01FC01DE
:10213000E059FF4F8FEF9FEFDC0180839183A283F3
:10214000B383349688EF8083319683E0840F808355
:1021500031968BE48083319660833196108250E013
:10216000B901CE0187589F4F0E94411A43E061E0B8
:10217000CE010E94AA0BDF91CF91089581E0FBCFA1
:10218000AF92BF92CF92DF92EF92FF920F931F9385
:10219000CF93DF93EC01C62ED42E5901C801B701AD
:1021A0002091F90123FD37C0611571058105910565
:1021B00039F4E881F9810688F789E02DCE01099587
:1021C000FE01E059FF4F60837183828393833496CD
:1021D00088EF8083319682E08D0D8083319689E689
:1021E00080833196C0824D2D50E0B501CE018858D4
:1021F0009F4F0E94411A43E061E0CE010E94AA0B6A
:10220000DF91CF911F910F91FF90EF90DF90CF90D2
:10221000BF90AF90089581E0F3CF4F925F926F929D
:102220007F928F929F92AF92BF92CF92DF92EF9266
:10223000FF920F931F93CF93DF93222369F1DB016A
:102240002C91EC01C359DF4F2A3521F02A3741F098
:1022500018820EC08091F901877F8093F901F8CF31
:1022600088818823B1F08091F90188608093F90119
:10227000DF91CF911F910F91FF90EF90DF90CF9062
:10228000BF90AF909F908F907F906F905F904F9096
:10229000089581E08883ECCF142F5B01EC01FC01F1
:1022A000ED59FF4F40815181628173813D9640839A
:1022B0005183628373834C01B4E78B0E911C88E7D2
:1022C000F40180838091F90183FF24C0D5018C91B2
:1022D000853771F68AE79AEDA7E0B0EB8093FC08AA
:1022E0009093FD08A093FE08B093FF0889E18083D6
:1022F0003196108243E060E0CE010E94AA0B88E193
:1023000099E00FB6F894A895809360000FBE909363
:102310006000FFCFFE01E359FF4F1082F50180817D
:10232000873509F42AC108F056C0853409F488C0FD
:1023300080F5813409F476C0833409F479C080349F
:1023400009F068C081818136E9F41630D9F48281C0
:10235000811107C08381811104C08481882309F41D
:1023600059C0B2E0AB0EB11C0CEF13E0F501619166
:102370005F01C8010E94EC0C0F5F1F4F0115F4E0D4
:102380001F07A1F78091F901846081608093F901B2
:1023900041C0823509F4D3C0833509F488C18B3438
:1023A000C9F5D50113968C91B82FB170CB2EE82EBC
:1023B000F12CF594E794F594E794E881F98100888D
:1023C000F189E02DD50112960C91129711962C915E
:1023D000CE0109951FC0833709F45AC198F48C3691
:1023E00009F40AC18E3609F41CC1883699F488892B
:1023F000FE01EA58FF4F808389893196808382E00D
:10240000329714C0883709F443C18B3C51F28637A8
:1024100009F437C189E1D4018C93FE01EB58FF4FD9
:10242000108272C089E6FE01EA58FF4F80836CC0BB
:10243000E881F9810488F589E02DCE010995EACF7C
:102440009481992339F36380892F869586958695A3
:10245000492E512C9770FE01EB58FF4F911169C026
:102460008C5F8083408150E070E060E08E010A580C
:102470001F4FC8010E944A1A85E6F8018083D501E2
:1024800011968C9111973196808312968C911297A8
:102490003196808313968C9131968083712CD12C48
:1024A000C12C10E000E0812C912C54018394F12C7C
:1024B000E12CE614F7040CF5C7018C0D9D1D0E945C
:1024C00093198F3FC1F1F801A3E0F595E795AA951F
:1024D000E1F7EC0FFD1FE658FF4FC8018770992701
:1024E000A501940104C0220F331F441F551F8A9574
:1024F000D2F7C9012081822B80830F5F1F4FC60C4A
:10250000D71C041515059CF243E060E0CE01DF9175
:10251000CF911F910F91FF90EF90DF90CF90BF90E0
:10252000AF909F908F907F906F905F904F900C94A2
:10253000AA0B8B5F96CF3FEFE31AF30ABACF1430A2
:1025400009F068CFE180F280FE24EF24FE24D12C34
:10255000D50113968C91D81608F08FC00D2D10E080
:10256000C8018E0D9F1D0E9493190C0F1D1FF801AD
:10257000EA58FF4F8083D394EBCF838190E0049699
:102580001817190609F046CF81819281982789276B
:1025900098271A3068F48B3FB3E09B0748F03496D5
:1025A00024E0211728F431913F3FE1F42F5FF9CF68
:1025B000D12C04E07C01EA18FB080117B0F4C70134
:1025C0008A0D9B1DD11004C08C3FE3E09E0728F4C8
:1025D000D50114966C910E94EC0C0F5FBFEFAB1A03
:1025E000BB0AEBCFDD24D394E4CF8091F90182FDC7
:1025F00011CFD0FA82F9CACE82819D81891708F065
:1026000009CF90E0880F991F2E813F81820F931F81
:10261000DC01ED91FC91D50113968C918170828340
:10262000F9CE688D798D8A8D9B8D28E4FE01EA585C
:10263000FF4F208322E4319620837E01B8E7EB0E22
:10264000F11C27E5F70120838E0101581F4F2AE076
:10265000822E912CA12CB12C0E151F0569F0015072
:102660001109A50194010E94DB19605DD801119642
:102670006C93B901CA01F0CF8AE0FE01EB58FF4F1D
:10268000D5CE8A899B89FE01EA58FF4F9083B5CE4B
:1026900095012E5F3F4F4EEF410FE881F981028097
:1026A000F381E02DD50111966C91CE010995F501CC
:1026B000618189E6F82E8E010A581F4FD801FC92DD
:1026C000FE01E958FF4F6083E881F9810480F581BC
:1026D000E02DAE0148585F4FCE010995FE01EB5841
:1026E000FF4F8E5F8083F801F0820ECF1F920F9212
:1026F0000FB60F9211242F933F938F939F93AF9315
:10270000BF938091340290913502A0913602B0912E
:1027100037023091330223E0230F2D3758F501960D
:10272000A11DB11D20933302809334029093350292
:10273000A0933602B093370280912F02909130021D
:10274000A0913102B09132020196A11DB11D80937A
:102750002F0290933002A0933102B0933202BF91C6
:10276000AF919F918F913F912F910F900FBE0F903E
:102770001F90189526E8230F0296A11DB11DD2CFF8
:102780001F920F920FB60F9211242F933F934F93E6
:102790005F936F937F938F939F93AF93BF93EF93C9
:1027A000FF938091F1019091F201A091F301B0911A
:1027B000F401892B8A2B8B2BC1F19091F001809130
:1027C00000008927809300008091F1019091F2012F
:1027D000A091F301B091F401181619061A061B0610
:1027E0009CF48091F1019091F201A091F301B091DC
:1027F000F4010197A109B1098093F1019093F201CD
:10280000A093F301B093F401FF91EF91BF91AF91C9
:102810009F918F917F916F915F914F913F912F91F8
:102820000F900FBE0F901F90189580910001E8E661
:10283000F0E0E4919FEF90930001E13051F030F02F
:10284000E23069F060E00E94F600DECF10926E0088
:10285000F9CF90916F009D7F90936F00F3CF90918F
:1028600070009D7F9093700091E09093B0009091E4
:10287000B100987F94609093B1001092B300E2CFC2
:102880001F920F920FB60F9211242F933F934F93E5
:102890005F936F937F938F939F93AF93BF93EF93C8
:1028A000FF9388E392E00E940502FF91EF91BF91B0
:1028B000AF919F918F917F916F915F914F913F91D8
:1028C0002F910F900FBE0F901F9018951F920F928F
:1028D0000FB60F9211242F938F939F93EF93FF9333
:1028E000E0914802F09149028081E0914E02F0911E
:1028F0004F0282FD1BC09081809151028F5F8F73C8
:1029000020915202821741F0E0915102F0E0E85C20
:10291000FD4F958F80935102FF91EF919F918F9181
:102920002F910F900FBE0F901F9018958081F4CFBC
:102930001F920F920FB60F9211242F933F934F9334
:102940005F936F937F938F939F93AF93BF93EF9317
:10295000FF93E091F701F091F801309709F445C039
:10296000A685B7852C918585282309F03EC0A389CB
:10297000B4899C918589809589238C9386899789D0
:102980000197F1F7608D718DA685B785558538E083
:10299000CB010197F1F7822F90E095958795282F2D
:1029A0004C91452309F02068315091F78091F60150
:1029B00090E001968F7399273091F501381731F126
:1029C000A091F601B0E0A156BE4F2C938093F60182
:1029D000828D938DDC011197F1F70197F1F7A389AF
:1029E000B4898C919589892B8C93FF91EF91BF913C
:1029F000AF919F918F917F916F915F914F913F9197
:102A00002F910F900FBE0F901F901895868D8160AB
:102A1000868FDECFCF93DF93E8E3F2E0138212825A
:102A200088EE93E0A0E0B0E084839583A683B7832B
:102A30002EE631E03183208325EC30E03587248792
:102A400024EC30E03787268720EC30E0318B208B78
:102A500021EC30E0338B228B22EC30E0358B248B61
:102A600026EC30E0378B268B118E128E138E148E4F
:102A7000C5EDD2E01B821A828C839D83AE83BF8317
:102A800080E891E0998388831F8A1E8A198E188EA8
:102A90001B8E1A8E1D8E1C8EE3EFF2E080818E7FDE
:102AA000808361E082E00E94F60061E082E00E94A3
:102AB0002401E1EBF0E0E491E88BEDE9F0E0E49152
:102AC000F0E0EE0FFF1FEF56FF4F859194919A8B28
:102AD000898B60E084E00E94240161E084E00E9430
:102AE000F60084E08C87E3EBF0E0E491ED87EFE91A
:102AF000F0E0E491F0E0EE0FFF1FE957FF4F859102
:102B000094919F878E87DF91CF910895789484B5B3
:102B1000826084BD84B5816084BD85B5826085BDD9
:102B200085B5816085BD80916E00816080936E0067
:102B30001092810080918100826080938100809159
:102B4000810081608093810080918000816080930A
:102B500080008091B10084608093B1008091B000CA
:102B600081608093B00080917A00846080937A00C5
:102B700080917A00826080937A0080917A008160EF
:102B800080937A0080917A00806880937A00109216
:102B9000C10083E080930101E0914802F091490275
:102BA00082E08083E0914402F09145021082E0913E
:102BB0004602F091470280E1808310925002E0913A
:102BC0004C02F0914D0286E08083E0914A02F09140
:102BD0004B02808180618083E0914A02F0914B0238
:102BE000808188608083E0914A02F0914B0280816D
:102BF00080688083E0914A02F0914B0280818F7D52
:102C000080831092F0021092EF021092EE02109266
:102C1000ED021092EC021092EB028DEC90E090939A
:102C2000F2028093F1029091E102963108F047C0E0
:102C300025E530E03093EC022093EB022BEC30E002
:102C40003093EE022093ED0220E930E03093F00261
:102C50002093EF022091680084E0983048F031E042
:102C60009E3008F430E081E001C0880F3A95EAF721
:102C7000822B809368002DE630E0983050F02BE6F0
:102C800030E09E3030F02CE630E0963110F030E04D
:102C900020E03093E9022093E802292F30E09830B9
:102CA00008F04FC181E001C0880F9A95EAF7809340
:102CB000EA028091F1029091F2020197F1F780917E
:102CC000EF029091F002892B49F1E091F701F09128
:102CD000F80182E0E53DF80709F1309739F0A38962
:102CE000B4899C918589809589238C938091F30286
:102CF0008E7F8093F3021092F6011092F50185ED1C
:102D000092E09093F8018093F701E091E802F0914E
:102D1000E90280819091EA02892B808386E6C82EA1
:102D200081E0D82E92E6E92E91E0F92E2BEF822E4B
:102D300021E0922E10E000E030E1A32E31E0B32E2E
:102D400044E6542E66246A9485E290E00E94CA17F5
:102D5000EC01D6018D916D01F70191917F011A82ED
:102D6000B982A88299878A879801255F3D4F3C8761
:102D70002B8718861F8260E00E94F60060E089853C
:102D80000E94F60061E08A850E94240161E0898545
:102D90000E942401772473947D867E861F8A188E74
:102DA000798A5C8A7E8A198E7F867B8A1D8A6CA2CC
:102DB000D401CD93DD934D01095F1F4F0C311105F7
:102DC00019F68AE190E00E94CA17EC011A828CE1A0
:102DD00091E09983888385E1898787E292E09B87E8
:102DE0008A871C861D861E861F8686E090E0998B4A
:102DF000888B1B8A1A8A1D8A1C8A1E8A1F8A188E33
:102E0000198E60E085E10E942401D0930402C093F2
:102E1000030287E090E00E94CA178C0180E691E0EF
:102E2000F8019183808386EB90E00E94CA17EC0141
:102E300088E291E09983888388E28C8385E092E040
:102E40009B838A8385E08D838BEF91E09F838E83C4
:102E5000198618861B870A87798A80E590E09B8B04
:102E60008A8B85ED92E09D8B8C8B83E08E8B61E06D
:102E70000E94240160E08E890E94F6001C8EFE01F3
:102E8000E959FF4F10821182128213820E949B0B1C
:102E9000FE01E559FF4F918380831D861C861E86A7
:102EA0001F8682E8888BCE010E94000D1092FA01E5
:102EB0008091F901877F8B7F8093F901FE01E359AF
:102EC000FF4F108288E19EE00FB6F894A89580939A
:102ED00060000FBE9093600084E491E09983888342
:102EE000D0932E02C0932D02CE010E94950A88E055
:102EF0008C8762E00E9424018DE08D8761E00E9452
:102F00002401C0E0D0E080912D0290912E02DC01DE
:102F1000ED91FC910190F081E02D099583B7817FBF
:102F200083BF83B7816083BF889583B78E7F83BF5C
:102F3000209749F30E94F101882329F30E940000A1
:102F4000E2CF9E3040F42850310981E001C0880F63
:102F50002A95EAF7ACCE2E503109F7CF80E891E000
:102F60009093D6028093D5028091F7019091F80159
:102F7000855D924071F4E091E802F091E902908160
:102F80008091EA028095892380831092F801109243
:102F9000F70108950F931F93CF93DF93823091052C
:102FA00010F482E090E0E091F602F091F70230E058
:102FB00020E0B0E0A0E0309799F42115310509F444
:102FC0004AC0281B390B24303105D8F58A819B81F2
:102FD0006115710589F1FB0193838283FE0111C0A4
:102FE000408151810281138148175907E0F0481749
:102FF000590799F4109761F012960C931297139653
:103000001C933296CF01DF91CF911F910F910895BC
:103010000093F6021093F702F4CF2115310551F019
:103020004217530738F0A901DB019A01BD01DF0106
:10303000F801C1CFEF01F9CF9093F7028093F60228
:10304000CDCFFE01E20FF31F8193919322503109FE
:1030500039832883D7CF2091F4023091F502232BB6
:1030600041F420910401309105013093F502209341
:10307000F40220910201309103012115310541F440
:103080002DB73EB74091060150910701241B350B27
:10309000E091F402F091F502E217F307A0F42E1B81
:1030A0003F0B2817390778F0AC014E5F5F4F2417AC
:1030B000350748F04E0F5F1F5093F5024093F4021E
:1030C000819391939FCFF0E0E0E09CCFCF93DF938B
:1030D0000097E9F0FC01329713821282A091F60268
:1030E000B091F702ED0130E020E01097A1F42081CB
:1030F0003181820F931F2091F4023091F50228173D
:10310000390709F061C0F093F502E093F402DF9112
:10311000CF910895EA01CE17DF07E8F54A815B8178
:103120009E0141155105B1F7E901FB83EA834991FD
:103130005991C40FD51FEC17FD0761F4808191816F
:103140000296840F951FE901998388838281938178
:103150009B838A83F0E0E0E012968D919C91139717
:103160000097B9F52D913C911197CD010296820FF0
:10317000931F2091F4023091F5022817390739F690
:10318000309751F51092F7021092F602B093F502C3
:10319000A093F402BCCFD383C28340815181840FBA
:1031A000951FC817D90761F44E5F5F4F88819981D9
:1031B000480F591F518340838A819B819383828367
:1031C0002115310509F0B0CFF093F702E093F60234
:1031D0009ECFFD01DC01C0CF13821282D7CF8F9228
:1031E0009F92AF92BF92CF92DF92EF92FF92CF93D6
:1031F000DF93EC01688179818A819B81611571057A
:103200008105910521F464E279ED8BE597E02DE1EC
:1032100033EF41E050E00E94A91949015A019B0196
:10322000AC01A7EAB1E40E94C8196B017C01ACEEC5
:10323000B4EFA50194010E94D619C60ED71EE81E50
:10324000F91EF7FE06C081E0C81AD108E10880E83F
:10325000F80AC882D982EA82FB82C701B6019F7749
:10326000DF91CF91FF90EF90DF90CF90BF90AF9024
:103270009F908F9008958F929F92AF92BF92CF921E
:10328000DF92EF92FF9260910801709109018091A5
:103290000A0190910B01611571058105910521F4D9
:1032A00064E279ED8BE597E02DE133EF41E050E00A
:1032B0000E94A91949015A019B01AC01A7EAB1E496
:1032C0000E94C8196B017C01ACEEB4EFA50194011A
:1032D0000E94D619C60ED71EE81EF91EF7FE06C0BC
:1032E00081E0C81AD108E10880E8F80AC092080114
:1032F000D0920901E0920A01F0920B01C701B601D8
:103300009F77FF90EF90DF90CF90BF90AF909F900E
:103310008F900895609308017093090180930A01CA
:1033200090930B010895F999FECF92BD81BDF89A53
:10333000992780B50895262FF999FECF1FBA92BD1F
:1033400081BD20BD0FB6F894FA9AF99A0FBE019686
:103350000895052E97FB1EF400940E94C01957FD96
:1033600007D00E94DB1907FC03D04EF40C94C0195F
:1033700050954095309521953F4F4F4F5F4F0895A1
:1033800090958095709561957F4F8F4F9F4F0895D1
:103390000E94FD19A59F900DB49F900DA49F800DD4
:1033A000911D11240895B7FF0C94C8190E94C819E3
:1033B000821B930B0895A1E21A2EAA1BBB1BFD01D1
:1033C0000DC0AA1FBB1FEE1FFF1FA217B307E40704
:1033D000F50720F0A21BB30BE40BF50B661F771F5C
:1033E000881F991F1A9469F760957095809590953C
:1033F0009B01AC01BD01CF010895A29FB001B39F15
:10340000C001A39F700D811D1124911DB29F700DED
:10341000811D1124911D089597FB072E16F4009429
:1034200007D077FD09D00E942D1A07FC05D03EF485
:10343000909581959F4F0895709561957F4F089560
:10344000EE0FFF1F0590F491E02D09940E94FD19E5
:10345000B7FF0895821B930B0895AA1BBB1B51E174
:1034600007C0AA1FBB1FA617B70710F0A61BB70BF4
:10347000881F991F5A95A9F780959095BC01CD0199
:103480000895FB01DC0102C001900D9241505040B3
:10349000D8F70895DC0101C06D9341505040E0F72A
:1034A000089510E0C3E6D0E004C0FE010E94201A97
:0C34B0002196C436D107C9F7F894FFCF6D
:1034BC00FF010000F8028000010000000000000085
:1034CC009F08730860062109000000004B03340AB2
:1034DC0042093E0A00000000480DB3029502940216
:1034EC00C010DD024B0C90101D030D11950AD40277
:1034FC0000000000480DB30295025A0AC010DD020C
:10350C004B0C90101D030D11950AD4020000000005
:10351C00B90A060F1113050E101200000000270245
:10352C008701B4017402E501C301D701000000005A
:0E353C0050058701E1059402A805C005380579
:00000001FF
