:107000000C945A380C9477380C9477380C94773861
:107010000C9477380C9477380C9477380C94773834
:107020000C9477380C9477380C9477380C94773824
:107030000C9477380C9477380C9477380C94773814
:107040000C9477380C9477380C9477380C94773804
:107050000C9477380C9477380C9477380C947738F4
:107060000C9477380C9477380C9477380C947738E4
:107070000C9477380C9477380C9477380C947738D4
:107080000C9477380C9477380C9477380C947738C4
:107090000C9477380C9477380C9477380C947738B4
:1070A0000C9477380C9477380C9477380C947738A4
:1070B0000C94773811241FBECBEFD8E0DEBFCDBFD4
:1070C00011E0A0E0B1E0EEECFBE702C005900D920C
:1070D000A630B107D9F721E0A6E0B1E001C01D92CA
:1070E000A23FB207E1F70E940D3B0C94E53D0C94E2
:1070F00000389091C00095FFFCCF8093C6000895A2
:10710000FB012081318198E0432F441F4427441F15
:10711000220F331F87FD2160442321F0F2E02F2747
:10712000F0E13F27880F915079F7FB0131832083ED
:107130000895109299011092980110929C018FEF7E
:107140009FEF909305018093040110929B01089595
:107150000F931F93CF93DF93D1E00FEF1FEF809139
:1071600097018111C6C08091C00087FFC2C0C09145
:10717000C60083E08C0F8230B0F4D0939901109256
:10718000980110929C011093050100930401109244
:107190009B01109303010093020162E071E08C2FC8
:1071A0000E948038DCCF809199018823C1F2CC3FC6
:1071B00019F4D0939801D3CF80919801882319F0C6
:1071C000C0681092980162E071E08C2F0E948038B4
:1071D00080919C018035B0F4E82FF0E0E356FE4F3B
:1071E000C083843079F4C3FF05C091E02C2F237055
:1071F000233009F490E090939A01992369F19AE081
:1072000090939B0120919B01222371F0422F50E02B
:10721000BA01615071098617170631F44C0F511DE0
:1072200050930501409304018F5F80939C0140912E
:10723000040150910501141615060CF056C0841770
:10724000150609F052C08091020190910301892B2B
:1072500029F00E94993883CF96E0D2CF60919D01AA
:1072600070919E0180919F019091A0010E94C63D66
:10727000609393017093940180939501909396018C
:107280008091A10180938E0180919A01882349F118
:107290006091A2017091A3018091A4019091A50138
:1072A0000E94C63D60938F0170939001809391017D
:1072B00090939201822F90E0FC01E456FE4F2081D2
:1072C000223008F422E0225020938B0183569E4FF7
:1072D00090938D0180938C010E949938D0939701EF
:1072E0003ECF60E070E0CB01DDCF803508F437CFD2
:1072F000B0CFDF91CF911F910F91089507B600FE97
:1073000008950E94A838FACFCF93C82F0E948038E2
:1073100084E08C0F833040F48CEF0E9479388C2FFE
:107320008F77CF910C9479388C2FFBCFCF93DF934D
:1073300080910A01882309F433C0C0910001D091E3
:10734000010183E0FE0180935700E8950E947E3999
:107350002BE831E0ABE0B1E041E0BE016B507140A1
:10736000FB01EA0FFB1F11968C9111979C918927C5
:10737000982789270C0140935700E895112412960D
:107380002A173B0769F785E0FE0180935700E895CF
:107390000E947E3981E180935700E89510920A019E
:1073A000DF91CF9108952D981092C100F894F0E0EC
:1073B000E0E00994CF9394E0980F933030F4C82F15
:1073C0008CEF0E9479388C2F8F77CF910C9479387D
:1073D000AF92BF92CF92DF92EF92FF920F931F93E3
:1073E000CF93DF9300D0CDB7DEB7F62EE72EB82EC1
:1073F000A92E142F69018FEF9FEF9A8389835A9AE0
:107400008DEF0E947938BE016F5F7F4F8DEF0E9434
:107410008038BE016F5F7F4F8A2D0E948439BE0184
:107420006F5F7F4F8B2D0E948439BE016F5F7F4F4E
:107430008E2D0E948439BE016F5F7F4F8F2D0E9479
:107440008439BE016F5F7F4F812F0E94843913FF03
:107450001FC01091EE01F090EF01E090F0018091DB
:10746000F101BE016F5F7F4F0E948439BE016F5FE3
:107470007F4F8E2D0E948439BE016F5F7F4F8F2D0D
:107480000E948439BE016F5F7F4F812F0E94843933
:10749000BE016F5F7F4F82E0800F0E9484397601CA
:1074A0000C0D1D2D111DBE016F5F7F4FE016F10603
:1074B00031F580E00E948038BE016F5F7F4F80E031
:1074C0000E9480388A810E94DA3989810E94DA39E3
:1074D0008091C00086FFFCCF8091C00080648093C3
:1074E000C0005A980F900F90DF91CF911F910F918C
:1074F000FF90EF90DF90CF90BF90AF900895F7018D
:1075000081917F010E948439CECF0F934091ED018C
:107510004295440F407E496100E030E020E00E9447
:10752000E8390F9108950F93CF93DF9300D0CDB733
:10753000DEB78FEF898388E08A8302E09E012F5FA8
:107540003F4F48EF6FEF7FEFCB010E94E8390F907C
:107550000F90DF91CF910F9108958F929F92AF92EC
:10756000BF92CF92DF92EF92FF920F931F93CF9330
:10757000DF93CDB7DEB760970FB6F894DEBF0FBECE
:10758000CDBF81E489831A821B821C821D8285E023
:107590008E836091EE017091EF018091F0019091E6
:1075A000F10128E42F8322E4288727E529878E012B
:1075B0000F5F1F4F7E0126E0E21AF10868012AE002
:1075C000822E912CA12CB12CA50194010E94A43DE6
:1075D000605DF8016787B901CA0101501109E01621
:1075E000F10691F700E1960148EF6FEF7FEFCB01D5
:1075F0000E94E83960960FB6F894DEBF0FBECDBF8B
:10760000DF91CF911F910F91FF90EF90DF90CF907E
:10761000BF90AF909F908F900895CF93DF93CDB799
:10762000DEB7C454D1090FB6F894DEBF0FBECDBF8C
:1076300094B714BE0FB6F894A89580916000886145
:1076400080936000109260000FBE4091FC08509142
:10765000FD086091FE087091FF081092FC081092DE
:10766000FD081092FE081092FF08F0E0E0E025917E
:1076700034916A98729A85E38A95F1F7629B0CC0FF
:107680002F3F3F4F49F093FF05C04A375A4D67409F
:10769000704B11F00E94D3398CEF93E00E94DD3DD6
:1076A000182F8DEF93E00E94DD3D90E0B0E0A0E068
:1076B0007C01DD24CC24F12A8EEF93E00E94DD3D95
:1076C000182F8FEF93E00E94DD3D9601282BD70104
:1076D000C901912B8093EE019093EF01A093F001EB
:1076E000B093F1018F3F9F4FAF4FBF4F61F48FEFCA
:1076F0009FEFAFEFB2E48093EE019093EF01A09380
:10770000F001B093F1011092C50083E38093C400AF
:1077100086E28093C20088E18093C100529A5A9811
:10772000259A88EC90E020E931E0F9013197F1F7F2
:107730000197D9F70E94933A80E29EE40197F1F70E
:107740000E94AD3A1092800085E0809381001092F3
:1077500085001092840081E086BBD12CAE014F5F82
:107760005F4F3A01312C212CCE01049625969FAF14
:107770008EAF259711E08091840090918500209133
:107780000801222309F44BC093FF4EC02D9A0E949A
:10779000A83880919701882309F44AC01092970174
:1077A00040919301509194016091950170919601DF
:1077B00080908F0190909001A0909101B0909201E3
:1077C000E0908C01F0908D0100918B0150908E0122
:1077D0005694F52DF3705F2EF093ED014F3F2FEF90
:1077E00052076207720769F08091EE019091EF01F4
:1077F000A091F001B091F101481759076A077B0782
:10780000B9F40023A9F0F70180818A3719F5D090E7
:107810000701DD2059F010930601D12C09C09F7398
:107820008115944008F4B2CF2D98B1CF1093070181
:10783000B09BA1CF81E086BBD39435E03D1508F025
:1078400099CFF10185919491019609F493CF0E940B
:10785000D33990CF8A3529F410920601109207018E
:10786000DCCF4F3F5F4F6F4F7F4F11F39091060179
:10787000992379F08537E1F61092060110920701FD
:10788000C501B4010E94853A0E94933A0E94AD3A24
:10789000C4CF803709F4EBC0E0F5873609F414C192
:1078A00038F4813499F3C501B4010E94853AC0CF00
:1078B000883609F400C18E36B1F76091EE017091FF
:1078C000EF018091F0019091F10158E4598322E495
:1078D0002A8327E52B837E01EBE0EE0EF11C2AE0E4
:1078E00030E040E050E00E94A43D605DF70162930B
:1078F0007F01B901CA0125962EAD3FAD25972E1700
:107900003F0769F7452D4295440F407E48690AE0DC
:10791000C3C0853709F4B0CF08F5823721F60430AB
:1079200008F47BCFF701C180D280DC24CD24DC2495
:107930000381109308010E949639013408F000E495
:10794000D301C618D7088A2F8619801708F4B6C045
:10795000452D4295440F407E49619EC0863709F40B
:10796000A1C0873709F09FCF043008F456CFF70144
:10797000C180D280DC24CD24DC2483819CEF492E7D
:10798000400E841508F4482E22961FAE22972396A7
:107990004FAE2397452D4295440F407E496102E04A
:1079A0009E012F5B3F4FC501B4010E94E83910933F
:1079B0000801042D013408F000E4402F50E0B70125
:1079C0006C5F7F4FC3010E94CD3D80910901811101
:1079D0000DC023E0F10120935700E8950E947E3905
:1079E00031E130935700E89510930901802F90E022
:1079F000B0E0A0E08C0D9D1DA11DB11D5301C61866
:107A0000D70881309047A105B10508F006CF8A2D2F
:107A10008619801708F001CF7601EA0CFB1C47019C
:107A200050E8852280910001909101018816990605
:107A300071F00E949639909201018092000140E815
:107A400050E06FEF70E08BE091E00E94D63DF501D1
:107A500081915F012091000130910101F701E21B4A
:107A6000F30BE55FFE4F808310930A01D0CF0E9495
:107A700096392FEF3FEF30930101209300011092D0
:107A80000A0110920901198230E43A83452D42958A
:107A9000440F407E496102E09301C501B4010E9498
:107AA000E839BBCE198245E04A83452D4295440F03
:107AB000407E4869F0CF19821A82F7CFF601EA0FAB
:107AC000FB1FE491ED933FCF053048F1F701C180F2
:107AD000D280DC24CD24DC24E380F480FE24EF2457
:107AE000FE240E949639C501B4010E94853A80E2C5
:107AF0009EE40197F1F7053000F12FEF3FEF3A8355
:107B00002983B12CA12CCA14DB0471F489819A81D8
:107B1000E816F90609F081CE0E94D3397ECEF12C09
:107B2000E12CD12CC12CDDCFF5018491B3010E9451
:107B30008038FFEFAF1ABF0AE6CFF101859194912B
:107B4000019609F46ACEE8CFA1E21A2EAA1BBB1B4C
:107B5000FD010DC0AA1FBB1FEE1FFF1FA217B30719
:107B6000E407F50720F0A21BB30BE40BF50B661F2F
:107B7000771F881F991F1A9469F7609570958095F3
:107B800090959B01AC01BD01CF010895692796270F
:107B900069277827872778270895FB01DC0102C031
:107BA00001900D9241505040D8F70895DC0101C07A
:107BB0006D9341505040E0F70895F999FECF92BD82
:0E7BC00081BDF89A992780B50895F894FFCFFB
:067BCE00FFFFFFFFFFFFB7
:040000030000700089
:00000001FF
