:100000000C9464000C948C000C948C000C94DB1009
:100010000C94DB100C94DB100C948C000C940310EB
:100020000C948C000C948C000C948C000C948C0020
:100030000C948C000C948C000C948C000C948C0010
:100040000C94B90F0C948C000C94A9100C94831090
:100050000C948C000C948C000C948C000C948C00F0
:100060000C948C000C948C000200000000240027EB
:10007000002A00000000080002010000030407003D
:1000800000000000000000000000002300260029FE
:100090000000000000250028002B000404040404D4
:1000A0000404040202020202020303030303030125
:1000B00002040810204080010204081020010204FC
:1000C000081020004D11931311241FBECFEFD8E06C
:1000D000DEBFCDBF11E0A0E0B1E0E8E7FCE202C086
:1000E00005900D92A238B107D9F722E0A2E8B1E05D
:1000F00001C01D92A93DB207E1F710E0C3E6D0E0D0
:1001000004C02197FE010E941916C236D107C9F713
:100110000E94C9110C942F160C940000FB01208141
:10012000318198E0A901220F331F87FD216057FF1D
:1001300004C0F2E02F27F0E13F27880F915091F79C
:10014000FB01318320830895833081F028F48130CE
:1001500099F08230A9F008958730A9F08830C9F06D
:100160008430B1F4809180008F7D03C08091800045
:100170008F7780938000089584B58F7784BD08952C
:1001800084B58F7DFBCF8091B0008F778093B000D6
:1001900008958091B0008F7DF9CFCF93DF93282F02
:1001A00030E0F901ED58FF4F8491F901E155FF4F1F
:1001B000D491F901E556FF4FC491CC23A1F08111F0
:1001C0000E94A400EC2FF0E0EE0FFF1FE957FF4F55
:1001D000A591B491EC91ED2381E090E009F480E0E9
:1001E000DF91CF91089580E090E0FACF1F93CF93F5
:1001F000DF93282F30E0F901ED58FF4F8491F9018A
:10020000E155FF4FD491F901E556FF4FC491CC233E
:10021000A9F0162F81110E94A400EC2FF0E0EE0F40
:10022000FF1FEF56FF4FA591B4918FB7F894EC9153
:10023000111108C0D095DE23DC938FBFDF91CF91E1
:100240001F910895DE2BF8CFCF93DF9390E0FC0150
:10025000E155FF4F249185569F4FFC0184918823DF
:10026000C9F090E0880F991FFC01E759FF4FA59155
:10027000B491FC01EF56FF4FC591D49161110DC0AF
:100280009FB7F8948C91209582238C9388812823A2
:1002900028839FBFDF91CF910895623051F49FB7BB
:1002A000F8943C91822F809583238C93E8812E2BA8
:1002B000EFCF8FB7F894EC912E2B2C938FBFEACF12
:1002C0002FB7F89460911502709116028091170271
:1002D000909118022FBF0895AF92BF92CF92DF92F4
:1002E000EF92FF920F931F93CF93DF936C017B01EB
:1002F0008B01040F151FEB015E01AE18BF08C0177C
:10030000D10759F06991D601ED91FC910190F081EE
:10031000E02DC6010995892B79F7C501DF91CF91B1
:100320001F910F91FF90EF90DF90CF90BF90AF9013
:100330000895FC01538D448D252F30E0842F90E0EB
:10034000821B930B541710F0CF96089501970895D0
:10035000FC01918D828D981761F0A28DAE0FBF2F99
:10036000B11D5D968C91928D9F5F9F73928F90E0EF
:1003700008958FEF9FEF0895FC01918D828D98175E
:1003800031F0828DE80FF11D858D90E008958FEF9B
:100390009FEF0895FC01918D228D892F90E0805C64
:1003A0009F4F821B91098F739927089589E192E0ED
:1003B0000E94CA0121E0892B09F420E0822F0895D0
:1003C00080E090E0892B29F00E94D60181110C94E5
:1003D00000000895FC01A48DA80FB92FB11DA35AE8
:1003E000BF4F2C91848D90E001968F739927848F55
:1003F000A689B7892C93A089B1898C918370806478
:100400008C93938D848D981306C00288F389E02D18
:1004100080818F7D80830895EF92FF920F931F93C9
:10042000CF93DF93EC0181E0888F9B8D8C8D9813A7
:100430001AC0E889F989808185FF15C09FB7F894B3
:10044000EE89FF896083E889F989808183708064FF
:1004500080839FBF81E090E0DF91CF911F910F914A
:10046000FF90EF900895F62E0B8D10E00F5F1F4F59
:100470000F731127E02E8C8D8E110CC00FB607FC68
:10048000FACFE889F989808185FFF5CFCE010E94F6
:10049000EA01F1CFEB8DEC0FFD2FF11DE35AFF4F79
:1004A000F0829FB7F8940B8FEA89FB898081806284
:1004B000CFCFCF93DF93EC01888D8823B9F0AA8941
:1004C000BB89E889F9898C9185FD03C0808186FD0F
:1004D0000DC00FB607FCF7CF8C9185FFF2CF80815E
:1004E00085FFEDCFCE010E94EA01E9CFDF91CF91E8
:1004F00008950895DC0115963C9115976317A0F4B3
:10050000262F30E0220F331F16968D919C91280FD5
:10051000391FF90180819181DC01ED91FC9102800C
:10052000F381E02DBA010994FA01108281E0089567
:10053000CF93DF93DC0115968C9115976817B0F473
:1005400070E0660F771F16968D919C911797680F34
:10055000791FEB0188819981EC01E881F981019093
:10056000F081E02DBD01DF91CF910994DF91CF9112
:100570000895DC011296ED91FC9161817281838175
:10058000948108958F929F92AF92BF92CF92DF9203
:10059000EF92FF920F931F93CF93DF93EC01D62E30
:1005A000B42E922EE881F9810484F585E02D83E054
:1005B000882EAA24A394C12CEE24EA94FE2C870151
:1005C000CE010995182F88859985009769F011113A
:1005D0000BC0DC01ED91FC910190F081E02D092D23
:1005E0002B2D4D2DBE010995812FDF91CF911F91AC
:1005F0000F91FF90EF90DF90CF90BF90AF909F90C2
:100600008F900895AF92CF92EF920F93FC01858166
:10061000081708F5802F90E0880F991FA681B781F1
:10062000A80FB91F0D90BC91A02D12968C9181112D
:1006300012C082859385009771F0AC2CCE2CE02EF1
:10064000022F9A01AB01BF01DC01ED91FC910190F9
:10065000F081E02D09950F91EF90CF90AF90089524
:100660009F92AF92BF92CF92DF92EF92FF920F9341
:100670001F93CF93DF93EC017C0187E6E80EF11C1A
:10068000AA24AA948E010D591F4F35E0932ECC2435
:10069000CA94DC2C8C899D89DC01ED91FC9100844D
:1006A000F185E02D0995892B09F4A4C00E94600111
:1006B000F70160837183828393838C899D89DC0138
:1006C000ED91FC910284F385E02D0995B82E9F8968
:1006D0008C3F29F491FD1EC092609F8BDBCF8D3F34
:1006E000C9F49D7F91609F8B1092D0011092CF0131
:1006F000F80110821182128213821D8E1E8E1F8EAF
:1007000018A2D092CE01C092CD016DEC71E00E9492
:100710008E00C0CF90FFBECF91FF05C0B82E689469
:10072000B7F89D7F9F8B6DEC71E08B2D0E948E0042
:100730008091CF01843088F44D8D5E8D6F8D78A1CE
:10074000762F652F542F44274B294D8F5E8F6F8F47
:1007500078A38F5F8093CF019DCF843029F490924E
:10076000CF01B092CC0196CF9091CC0193FF16C0EF
:10077000292F2370233091F0893080F4D8014D91D6
:100780005D916D917C91762F652F542F44274B29D5
:10079000F8014083518362837383DBCF8F3F59F02D
:1007A000A092CF01B9A2F0E4FB1508F073CF8F89B6
:1007B0008E7F8F8B6FCF8091D001FE01E80FF11DEE
:1007C000B2A221E0280F2093D00139A1231362CFD8
:1007D0002091CD013091CE01232B09F05BCF2F89E1
:1007E0002E7F2F8BFE01EE59FF4F9083815089A3FE
:1007F00081E08C8FDF91CF911F910F91FF90EF904F
:10080000DF90CF90BF90AF909F9008950F931F936C
:10081000CF938C01C62F4115510521F0BA018C2FC1
:100820000E948E0084E08C0F833068F4D8015496C7
:100830008D919C91DC01ED91FC910190F081E02D76
:100840006CEF0995CF77F80184899589DC01ED91EA
:10085000FC910190F081E02D6C2FCF911F910F91B1
:1008600009948F929F92AF92BF92CF92DF92EF92B4
:10087000FF920F931F93CF93DF9300D0CDB7DEB7D6
:100880008C018FEF9FEF9A838983780120E7E20E36
:10089000F11CF70180819181A281B3818F3F9F4F2D
:1008A000AF4FBF4F99F0F801EC58FF4FD801AE5948
:1008B000BF4F8C9190E095958795837020E2829F41
:1008C000C001112490819F79892B808361E0D80138
:1008D00056968C910E94F600F80184899589DC0176
:1008E000ED91FC910190F081E02D6DEF0995BE0135
:1008F0006F5F7F4F8DEF0E948E00F70180809180A7
:10090000A280B38054E0F52E6B2D77278827992796
:10091000AE014F5F5F4FC8010E940604BA2CA92C9C
:10092000982C8824FA94F110EFCFAE014F5F5F4FFF
:100930007801F4E7EF0EF11CD7016C91C8010E9419
:100940000604F701808183FF1AC0D80158968D9064
:100950009D90AD90BC905B9724E0F22E6B2D772795
:1009600088279927AE014F5F5F4FC8010E94060498
:10097000BA2CA92C982C8824FA94F110EFCF680196
:10098000B5E7CB0ED11CF60160816E5FAE014F5F03
:100990005F4FC8010E940604F12CD6018C91F81615
:1009A00070F4F801EF0DF11DEA58FF4FAE014F5FF3
:1009B0005F4F6081C8010E940604F394EECFBE0130
:1009C0006F5F7F4F80E00E948E00BE016F5F7F4FA0
:1009D00080E00E948E006A8150E040E0C8010E94E1
:1009E000060450E040E06981C8010E940604F80155
:1009F00084899589DC01ED91FC910680F781E02DD9
:100A0000099560E0F80186890E94F600D8015796A2
:100A10008C915797886057968C930F900F90DF9129
:100A2000CF911F910F91FF90EF90DF90CF90BF90EB
:100A3000AF909F908F9008959F92AF92BF92CF9268
:100A4000DF92EF92FF920F931F93CF93DF9300D02B
:100A500000D000D01F92CDB7DEB7DC0117962D91E4
:100A60003C91232B09F443C0942E5B016C010E943E
:100A70006001F6010381148125813681AB01BC013F
:100A8000401B510B620B730B87819085B0E0A0E097
:100A9000481759076A077B0750F10E946001D60189
:100AA00013966D937D938D939C931697ED91FC9186
:100AB0000280F381E02DBE016F5F7F4FC601099573
:100AC000D501ED91FC910084F185E02DE12CF12C14
:100AD00087019E012F5F3F4F482F692DC501099562
:100AE0008130B9F48AEF90E0F601908787832796EA
:100AF0000FB6F894DEBF0FBECDBFDF91CF911F912F
:100B00000F91FF90EF90DF90CF90BF90AF909F90AC
:100B10000895D60118961C921E921797E8CFFC01F3
:100B20008285882329F088ECFB01808381E0089589
:100B3000FB011082FBCF0F931F93CF93DF93EC0148
:100B40008B01EB85FC85608161FF13C0D9019C910D
:100B50008985993C68F10E94CD0061E0892B09F0FC
:100B600060E089850E94F60081E09A85911180E01D
:100B70008A878F819885892BB1F4EB85FC858081EC
:100B800080FF11C00E9460016B837C838D839E83F4
:100B9000D8011296ED91FC918081B4E68B9FC00143
:100BA000112498878F83DF91CF911F910F91089522
:100BB00062FB662760F9992321F00E94F60081E02C
:100BC000D7CF91E069270E94F6001A86D2CFCF9343
:100BD000DF93EC013A85AB85BC8589859C913E3FCE
:100BE00079F492FB662760F991E069270E94F6008C
:100BF00061E089850E9424011A86DF91CF910895D2
:100C000021E0311120E092FB662760F96227DF9135
:100C1000CF910C94F6002091E4013091E501281762
:100C2000390771F49091E2018091E301981741F046
:100C3000E091E201F0E0E457FE4F808190E00895FA
:100C40008FEF9FEF0895EF92FF921F93CF93DF9363
:100C5000EC012C8D3D8D2115310561F481E090E092
:100C60009B838A8390E080E0DF91CF911F91FF907A
:100C7000EF900895E989FA898889482F40951FB730
:100C8000A8E0B0E050E890E0762F752309F09F5F70
:100C900056951197C9F7F894508154235083D90180
:100CA0001197F1F758E0E62EF12C60FF1EC060812D
:100CB000682B6083D9011197F1F7B7017595679596
:100CC000515089F790FF14C09081982B9083D901DF
:100CD0001197F1F79081892B80831FBF8C8D9D8D9B
:100CE0000197F1F781E090E0BFCF60816423E1CF0D
:100CF00090819423EBCF2091E4013091E5012817F6
:100D0000390771F48091E3012091E20190E0805C69
:100D10009F4F821B910960E470E00E94F1150895D5
:100D200090E080E008952091E4013091E5012817DA
:100D30003907B9F49091E2018091E301981789F0A5
:100D4000E091E201F0E0E457FE4F80812091E20162
:100D500030E02F5F3F4F2F7333272093E20190E065
:100D600008958FEF9FEF089590E080E008958091BF
:100D7000F8018F3F19F482E38093F80108959F9260
:100D8000AF92BF92CF92DF92EF92FF920F931F9399
:100D9000CF93DF938C015B017A01922ED0E0C0E00B
:100DA0006A0181E0C81AD108CE15DF0579F0C601C5
:100DB0008C1B9D0B911001C0CE018A0D9B1D0E94C2
:100DC0007815F80181938F012196EECFDF91CF91B5
:100DD0001F910F91FF90EF90DF90CF90BF90AF9059
:100DE0009F900895CF93DF93EC014C8150E020E079
:100DF00061E070E08A819B810E94BF06EA81FB81ED
:100E000081819281238134813183EA81FB81228334
:100E1000EA81FB819383EA81FB8184838091E601EF
:100E200081608093E601DF91CF9108954F925F92A8
:100E30006F927F928F929F92AF92BF92CF92DF92EA
:100E4000EF92FF920F931F93CF93DF93CDB7DEB74F
:100E500029970FB6F894DEBF0FBECDBFFC014B0142
:100E600029013A01CE821F8282819381A481B581BA
:100E700084159505A605B70529F48681801302C05F
:100E800081E08F834282538264827582068330E4DC
:100E9000C32ED12CFF24FA9448ECB42E21E044E078
:100EA00050E0B601CE0101960E94BF0689819A8169
:100EB000AB81BC818F3F2FEF9207A207B20709F4E5
:100EC0004AC084159505A605B70509F044C020E081
:100ED00041E050E0B6016C5F7F4FCE0108960E9462
:100EE000BF068885801337C020E041E050E0B6019E
:100EF0006B5F7F4FCE0108960E94BF0618851E11BA
:100F00002AC020E041E050E0B6016A5F7F4FCE0189
:100F100009960E94BF06AA2039F0898590E0959530
:100F2000879595958795898789858370898782308C
:100F300091F0833091F1813071F1BD82D401ED9156
:100F4000FC910280F381E02D9E012B5F3F4F43E037
:100F5000612FC4010995B7E0CB0ED11C2CE3C2165A
:100F600021E0D20609F09ACF29960FB6F894DEBF99
:100F70000FBECDBFDF91CF911F910F91FF90EF90EA
:100F8000DF90CF90BF90AF909F908F907F906F90A9
:100F90005F904F9008951D82D1CFFD82CFCF0E94E8
:100FA000201524E630E040E050E00E948E15DC0180
:100FB000CB018E529F4FAF4FBF4F0895BF92CF923C
:100FC000DF92EF92FF920F931F93CF93DF93EC0189
:100FD000062FB42E662371F10E946001FE01E959CB
:100FE000FF4FC080D180E280F380AB01BC014C197F
:100FF0005D096E097F097E012BE6E20EF11CF70107
:1010000080819181B0E0A0E084179507A607B7071B
:1010100060F081E090E0DF91CF911F910F91FF9000
:10102000EF90DF90CF90BF9008950E94CF07F70117
:101030009183808381E0FE01E259FF4F80833296E5
:1010400080819181A281B3818F3F9F4FAF4FBF4F6E
:1010500009F44BC0FE01EC58FF4F80818370813052
:1010600009F443C010E0B11609F446C0CE010E9455
:1010700031040E9460016B017C010E9460016C19C7
:101080007D098E099F09683C710581059105E8F489
:10109000CE010E9430038C8D882379F34D8D5E8DB7
:1010A0006F8D78A1888D998DAA8DBB8D48175907B2
:1010B0006A077B0711F71C8ECE010E94BF088F893B
:1010C00083FDDBCF90E080E0A6CF011102C01F5F5F
:1010D000CACF0E9460016C197D098E099F0966398B
:1010E00071058105910598F794CFCE010E943104D6
:1010F0008F89877F8F8BE6CF82E090E08CCF8F92B5
:10110000AF92CF92EF92FF920F931F93CF93DF9303
:10111000CDB7DEB7342F4091E60143FD2EC0FC0170
:10112000E059FF4FE082F1820283138348EF349647
:10113000408344E0319640834BE4319640833196BE
:1011400060833196C082211116C022E0482D6A2D9D
:10115000FC01E758FF4F330F330F320F30830E94EB
:10116000DE07DF91CF911F910F91FF90EF90CF900D
:10117000AF908F90089523E0E9CF81E0F2CFCF9236
:10118000DF92EF92FF92FC01DC01A159BF4F81E099
:101190008C9347891D973C9143FF24C0832F90E097
:1011A00025E0959587952A95E1F7282F237052968B
:1011B0008C9190E0959587958370281313C0519773
:1011C000CD90DD90ED90FC9013971D968D919D91A3
:1011D0000D90BC91A02DC816D906EA06FB0611F4A5
:1011E000477F478B3370313019F181A1811126C0BF
:1011F000858D968DA78DB0A18F3F9F4FAF4FBF4F6D
:10120000E9F0CF01E059FF4FDC01AD59BF4F4D91DF
:101210005D916D917C914083518362837383349699
:1012200029E120833196108243E060E00E94DE07CE
:1012300080E0FF90EF90DF90CF90089581E0F9CFAC
:101240001F93CF93DF93EC01162F0E947815181788
:1012500039F0612FCE01DF91CF911F910C94801551
:10126000DF91CF911F910895CF92DF92EF92FF927D
:101270000F931F93CF93DF93EC010CEF13E060E02B
:1012800070E0CB01CC24D62EE72EF82EC8010E94A8
:1012900078159601282BC701B9010F5F1F4F011563
:1012A00034E0130779F78B019701085E1340210999
:1012B000310907311C4F2F4F3F4F20F06FEF7FEF69
:1012C0008FEF92E4688F798F8A8F9B8F0E946F15C2
:1012D0000E94CF07C559DF4F998388838091E6012B
:1012E0008D7F8093E601DF91CF911F910F91FF9049
:1012F000EF90DF90CF9008953F924F925F926F9260
:101300007F928F929F92AF92BF92CF92DF92EF9295
:10131000FF920F931F93CF93DF9300D000D0CDB7F0
:10132000DEB79C838B838091E60180FF34C082FF0F
:1013300009C08B819C810E9434098091E6018B7FDA
:101340008093E601AB81BC81ED91FC911197068001
:10135000F781E02DCD01099510E0EB81FC818581BD
:101360001817A0F4812F90E0880F991F0680F7814D
:10137000E02DE80FF91F80819181DC01ED91FC9156
:101380000680F781E02D09951F5FE7CF8091E60188
:101390008E7F8093E601A895312C8B809C80B2E6ED
:1013A0008B0E911C0B811C810E5D1F4F1A830983CC
:1013B00044244A94542C320150E2A52EB12CAB8126
:1013C000BC8115968C911597381608F0AFC0CD01E9
:1013D0000E943003EB81FC81848D882309F45CC07A
:1013E000148ED4018C91458D568D678D70A1982FE8
:1013F0009370008D118D228D338D933009F069C06B
:1014000091A1911166C08695869586958F5F8032F1
:1014100009F45BC0F501E81BF1097301620104C026
:10142000CC0CDD1CEE1CFF1CEA95D2F7D701C601DF
:10143000402751276227732784239523A623B723A8
:10144000892B8A2B8B2B41F561E0AB81BC815696B1
:101450008C910E94F6008BE490E00197F1F7EB810C
:10146000FC8184899589DC01ED91FC910190F081EA
:10147000E02D68EF0995EB81FC8184899589DC0179
:10148000ED91FC910680F781E02D099560E0EB81FC
:10149000FC8186890E94F600832D90E0880F991FB9
:1014A000AB81BC811696ED91FC91E80FF91F80810C
:1014B0009181DC01ED91FC910480F581E02D432DBB
:1014C0006B817C81099533947ACF8FEF9FEFDC019C
:1014D000AFCF041715072607370729F04F3F5F4F97
:1014E0006F4F7F4FC9F68B819C810E94BF08882374
:1014F00099F221E0EB81FC81858D968DA78DB0A1BD
:101500008F3F9F4FAF4FBF4F09F020E0AB81BC81B1
:10151000ED91FC9111970288F389E02D91964C9101
:10152000919769817A81CD010995B6CF1091E60135
:1015300011FD89C00E946001683E734081059105DC
:1015400008F481C081E013FD75C08FEF9FEFDC01CF
:10155000EB81FC81E059FF4F80839183A283B383A9
:1015600088EFEB81FC81EC58FF4F808380E1EB81B9
:10157000FC81EB58FF4F808381E4EB81FC81EA58CA
:10158000FF4F8083EB81FC81E958FF4F1082EB8194
:10159000FC818089E858FF4F8083AB81BC815196E4
:1015A0008C915197FD01E758FF4F808352968C91A3
:1015B000529753969C91539731969083319680839E
:1015C00058966C91589759967C9159975A968C9148
:1015D0005A975B969C915B9728E43196208322E48E
:1015E000319620836D01BEE7CB0ED11C27E5F601B5
:1015F0002083EB80FC80F5E8EF0EF11C2AE0822EC0
:10160000912CA12CB12CEC14FD0471F001E0E01A36
:10161000F108A50194010E94C015605DD7011196E3
:101620006C93B901CA01EFCF43E061E08B819C81EB
:101630000E94DE0791E0811190E08091E60190FB2D
:1016400081F98093E601EB81FC818485882309F48C
:101650005EC00E9460016B017C01AB81BC811C9665
:101660008C919CEE980F9230B8F48E5080648093E9
:101670007C0080917A00806480937A0080917A0067
:1016800086FDFCCF809178009091790021E08A3F1F
:1016900091053CF020E005C00E94CD0021E0892B9F
:1016A000C9F78091E701823009F40FC108F0B3C097
:1016B000882309F4D3C0813009F4DEC0EB81FC81BA
:1016C0008585882321F14091D1015091D20160910B
:1016D000D3017091D40197018601041B150B260BD1
:1016E000370BB901A801453651056105710578F040
:1016F0009091E701953008F02CC1923008F048C174
:10170000992309F439C161E0913009F436C1AB8104
:10171000BC811E968C911E97811105C01F968C91DD
:10172000882309F462C00E946001C090D901D09062
:10173000DA01E090DB01F090DC016C197D098E0983
:101740009F096D3371058105910508F44EC0EB8149
:10175000FC818685882319F1978598130BC0DF01DA
:10176000A159BF4F9C91992329F091E0E259FF4F75
:1017700090831C929091E701992331F0AB81BC8159
:101780001D969C91891759F0EB80FC80BEE6EB0E0C
:10179000F11CF70160810E94F600D7011C92EB81D9
:1017A000FC8187858823B9F096858917A1F09091EF
:1017B000E701992319F09585891769F00B811C8140
:1017C00001591F4F1A830983D8016C910E94F600BA
:1017D000E981FA8110820E9460016093D9017093BF
:1017E000DA018093DB019093DC010F900F900F9052
:1017F0000F90DF91CF911F910F91FF90EF90DF90AD
:10180000CF90BF90AF909F908F907F906F905F90A0
:101810004F903F900895843009F47BC008F459C07C
:10182000853009F04BCF211149CFB12CA12C6FEF9E
:10183000C5010E9420096FEFA61AB60A7CEFA71611
:1018400073E0B706A1F7AB81BC81ED91FC911197D4
:101850000488F589E02DCD01099534C0222319F0C3
:1018600081E08093E701C092D501D092D601E09249
:10187000D701F092D80122CF8091D5019091D60165
:10188000A091D701B091D801B701A601481B590B0F
:101890006A0B7B0BDB01CA01222351F0893893418B
:1018A000A105B10508F40ACF82E08093E70106CFD5
:1018B00085369105A105B10528F08091E6018D7F5F
:1018C0008093E6011092E701F9CE83E0222349F2EA
:1018D000F5CE8091D5019091D601A091D701B0911C
:1018E000D801B701A601481B590B6A0B7B0BDB0122
:1018F000CA0184369105A105B10508F4DFCE222383
:1019000011F084E0AECF81319742A105B105D0F648
:10191000D5CE8091D5019091D601A091D701B091FB
:10192000D801B701A601481B590B6A0B7B0BDB01E1
:10193000CA0184369105A105B10508F4BFCE222362
:1019400009F2893B9B40A105B10508F4B7CE85E0BB
:10195000ACCF953009F0DBCE4F3E524061057105AA
:1019600008F4D5CE0E94CD0061E0892B09F060E03B
:10197000EB81FC81858501C060E00E94F600C09289
:10198000D101D092D201E092D301F092D401BFCE26
:101990000E94CD0061E0892B09F060E0AB81BC8141
:1019A0001D968C91EACFCF93DF935091E60153FDC2
:1019B00028C0EC01FC01E059FF4F8FEF9FEFDC01E5
:1019C00080839183A283B383349688EF808331969A
:1019D00083E0840F808331968BE48083319660832B
:1019E0003196108250E0B901CE0187589F4F0E9476
:1019F0001F1643E061E0CE010E94DE07DF91CF9128
:101A0000089581E0FBCFAF92BF92CF92DF92EF9229
:101A1000FF920F931F93CF93DF93EC01C62ED42E2A
:101A20005901C801B7012091E60123FD37C06115B6
:101A300071058105910539F4E881F9810688F789F6
:101A4000E02DCE010995FE01E059FF4F60837183BF
:101A500082839383349688EF8083319682E08D0D64
:101A60008083319689E680833196C0824D2D50E087
:101A7000B501CE0188589F4F0E941F1643E061E0D8
:101A8000CE010E94DE07DF91CF911F910F91FF9051
:101A9000EF90DF90CF90BF90AF90089581E0F3CFAB
:101AA0004F925F926F927F928F929F92AF92BF926E
:101AB000CF92DF92EF92FF920F931F93CF93DF931A
:101AC000222369F1DB012C91EC01C359DF4F2A3548
:101AD00021F02A3741F018820EC08091E601877FFD
:101AE0008093E601F8CF88818823B1F08091E601E8
:101AF00088608093E601DF91CF911F910F91FF9055
:101B0000EF90DF90CF90BF90AF909F908F907F909D
:101B10006F905F904F90089581E08883ECCF142FF1
:101B20005B01EC01FC01ED59FF4F40815181628165
:101B300073813D9640835183628373834C01B4E784
:101B40008B0E911C88E7F40180838091E60183FF6E
:101B500024C0D5018C91853771F68AE79AEDA7E00C
:101B6000B0EB8093FC089093FD08A093FE08B0931F
:101B7000FF0889E180833196108243E060E0CE0166
:101B80000E94DE0788E199E00FB6F894A89580934B
:101B900060000FBE90936000FFCFFE01E359FF4F3E
:101BA0001082F5018081873509F42AC108F056C0FA
:101BB000853409F488C080F5813409F476C0833413
:101BC00009F479C0803409F068C081818136E9F474
:101BD0001630D9F48281811107C08381811104C03C
:101BE0008481882309F459C0B2E0AB0EB11C0CEF1C
:101BF00013E0F50161915F01C8010E9420090F5FA8
:101C00001F4F0115F4E01F07A1F78091E6018460E2
:101C100081608093E60141C0823509F4D3C08335E9
:101C200009F488C18B34C9F5D50113968C91B82F6E
:101C3000B170CB2EE82EF12CF594E794F594E7944F
:101C4000E881F9810088F189E02DD50112960C9187
:101C5000129711962C91CE0109951FC0833709F474
:101C60005AC198F48C3609F40AC18E3609F41CC1A5
:101C7000883699F48889FE01EA58FF4F8083898964
:101C80003196808382E0329714C0883709F443C1CB
:101C90008B3C51F2863709F437C189E1D4018C932A
:101CA000FE01EB58FF4F108272C089E6FE01EA5830
:101CB000FF4F80836CC0E881F9810488F589E02DAD
:101CC000CE010995EACF9481992339F36380892F56
:101CD000869586958695492E512C9770FE01EB5876
:101CE000FF4F911169C08C5F8083408150E070E0AC
:101CF00060E08E010A581F4FC8010E94281685E631
:101D0000F8018083D50111968C91119731968083CB
:101D100012968C9112973196808313968C913196FE
:101D20008083712CD12CC12C10E000E0812C912CEF
:101D300054018394F12CE12CE614F7040CF5C7014F
:101D40008C0D9D1D0E9478158F3FC1F1F801A3E015
:101D5000F595E795AA95E1F7EC0FFD1FE658FF4FC3
:101D6000C80187709927A501940104C0220F331F71
:101D7000441F551F8A95D2F7C9012081822B808389
:101D80000F5F1F4FC60CD71C041515059CF243E0CE
:101D900060E0CE01DF91CF911F910F91FF90EF9006
:101DA000DF90CF90BF90AF909F908F907F906F907B
:101DB0005F904F900C94DE078B5F96CF3FEFE31A56
:101DC000F30ABACF143009F068CFE180F280FE2424
:101DD000EF24FE24D12CD50113968C91D81608F04F
:101DE0008FC00D2D10E0C8018E0D9F1D0E9478152B
:101DF0000C0F1D1FF801EA58FF4F8083D394EBCFDF
:101E0000838190E004961817190609F046CF818166
:101E100092819827892798271A3068F48B3FB3E07E
:101E20009B0748F0349624E0211728F431913F3F76
:101E3000E1F42F5FF9CFD12C04E07C01EA18FB0814
:101E40000117B0F4C7018A0D9B1DD11004C08C3F4F
:101E5000E3E09E0728F4D50114966C910E942009B6
:101E60000F5FBFEFAB1ABB0AEBCFDD24D394E4CFF7
:101E70008091E60182FD11CFD0FA82F9CACE82812B
:101E80009D81891708F009CF90E0880F991F2E8156
:101E90003F81820F931FDC01ED91FC91D5011396D8
:101EA0008C9181708283F9CE688D798D8A8D9B8D1E
:101EB00028E4FE01EA58FF4F208322E43196208374
:101EC0007E01B8E7EB0EF11C27E5F70120838E01B8
:101ED00001581F4F2AE0822E912CA12CB12C0E15F7
:101EE0001F0569F001501109A50194010E94C01558
:101EF000605DD80111966C93B901CA01F0CF8AE0F8
:101F0000FE01EB58FF4FD5CE8A899B89FE01EA5826
:101F1000FF4F9083B5CE95012E5F3F4F4EEF410F9F
:101F2000E881F9810280F381E02DD50111966C9151
:101F3000CE010995F501618189E6F82E8E010A58D6
:101F40001F4FD801FC92FE01E958FF4F6083E881E2
:101F5000F9810480F581E02DAE0148585F4FCE0134
:101F60000995FE01EB58FF4F8E5F8083F801F082E8
:101F70000ECF1F920F920FB60F9211242F933F9303
:101F80008F939F93AF93BF93809115029091160208
:101F9000A0911702B09118023091140223E0230F90
:101FA0002D3758F50196A11DB11D20931402809381
:101FB000150290931602A0931702B0931802809115
:101FC000100290911102A0911202B0911302019699
:101FD000A11DB11D8093100290931102A0931202D3
:101FE000B0931302BF91AF919F918F913F912F9129
:101FF0000F900FBE0F901F90189526E8230F0296A2
:10200000A11DB11DD2CF1F920F920FB60F921124B6
:102010002F933F934F935F936F937F938F939F93F0
:10202000AF93BF93EF93FF938091DE019091DF0117
:10203000A091E001B091E101892B8A2B8B2BC1F19A
:102040009091DD01809100008927809300008091AC
:10205000DE019091DF01A091E001B091E10118163D
:1020600019061A061B069CF48091DE019091DF018F
:10207000A091E001B091E1010197A109B10980931C
:10208000DE019093DF01A093E001B093E101FF91A5
:10209000EF91BF91AF919F918F917F916F915F91E0
:1020A0004F913F912F910F900FBE0F901F90189559
:1020B00080910001E8E6F0E0E4919FEF9093000149
:1020C000E13051F030F0E23069F060E00E94F6005B
:1020D000DECF10926E00F9CF90916F009D7F9093AC
:1020E0006F00F3CF909170009D7F9093700091E00E
:1020F0009093B0009091B100987F94609093B1005C
:102100001092B300E2CF1F920F920FB60F921124DC
:102110002F933F934F935F936F937F938F939F93EF
:10212000AF93BF93EF93FF9389E192E00E94EA019E
:10213000FF91EF91BF91AF919F918F917F916F919F
:102140005F914F913F912F910F900FBE0F901F9075
:1021500018951F920F920FB60F9211242F938F9301
:102160009F93EF93FF93E0912902F0912A028081DF
:10217000E0912F02F091300282FD1BC0908180918E
:1021800032028F5F8F7320913302821741F0E0910A
:102190003202F0E0E75EFD4F958F80933202FF91AF
:1021A000EF919F918F912F910F900FBE0F901F90E5
:1021B00018958081F4CF1F920F920FB60F921124C1
:1021C0002F933F934F935F936F937F938F939F933F
:1021D000AF93BF93EF93FF93E091E401F091E5019A
:1021E000309709F445C0A685B7852C9185852823AD
:1021F00009F03EC0A389B4899C9185898095892383
:102200008C93868997890197F1F7608D718DA685EA
:10221000B785558538E0CB010197F1F7822F90E023
:1022200095958795282F4C91452309F020683150CA
:1022300091F78091E30190E001968F739927309197
:10224000E201381731F1A091E301B0E0A457BE4F8D
:102250002C938093E301828D938DDC011197F1F72C
:102260000197F1F7A389B4898C919589892B8C9377
:10227000FF91EF91BF91AF919F918F917F916F915E
:102280005F914F913F912F910F900FBE0F901F9034
:102290001895868D8160868FDECFCF93DF93E9E13D
:1022A000F2E01382128288EE93E0A0E0B0E0848333
:1022B0009583A683B78321E631E03183208325EC23
:1022C00030E03587248724EC30E03787268720EC00
:1022D00030E0318B208B21EC30E0338B228B22ECF1
:1022E00030E0358B248B26EC30E0378B268B118E3B
:1022F000128E138E148EC6EBD2E01B821A828C8350
:102300009D83AE83BF8383E791E0998388831F8A8F
:102310001E8A198E188E1B8E1A8E1D8E1C8EE4ED51
:10232000F2E080818E7F808361E082E00E94F6008F
:1023300061E082E00E942401E1EBF0E0E491E88BAF
:10234000EDE9F0E0E491F0E0EE0FFF1FEF56FF4FF4
:10235000859194919A8B898B60E084E00E9424019E
:1023600061E084E00E94F60084E08C87E3EBF0E01B
:10237000E491ED87EFE9F0E0E491F0E0EE0FFF1F6C
:10238000E957FF4F859194919F878E87DF91CF9179
:102390000895789484B5826084BD84B5816084BDDD
:1023A00085B5826085BD85B5816085BD80916E00F3
:1023B000816080936E001092810080918100826024
:1023C0008093810080918100816080938100809161
:1023D00080008160809380008091B1008460809350
:1023E000B1008091B00081608093B00080917A004C
:1023F000846080937A0080917A00826080937A0072
:1024000080917A00816080937A0080917A00806860
:1024100080937A001092C100E0912902F0912A0283
:1024200082E08083E0912502F09126021082E09103
:102430002702F091280280E1808310923102E0911E
:102440002D02F0912E0286E08083E0912B02F09124
:102450002C02808180618083E0912B02F0912C021C
:10246000808188608083E0912B02F0912C02808132
:1024700080688083E0912B02F0912C0280818F7D17
:1024800080831092D1021092D0021092CF0210924B
:10249000CE021092CD021092CC028DEC90E090937F
:1024A000D3028093D2029091C202963108F047C0C5
:1024B00025E530E03093CD022093CC022BEC30E0C8
:1024C0003093CF022093CE0220E930E03093D10246
:1024D0002093D0022091680084E0983048F031E0E9
:1024E0009E3008F430E081E001C0880F3A95EAF7A9
:1024F000822B809368002DE630E0983050F02BE678
:1025000030E09E3030F02CE630E0963110F030E0D4
:1025100020E03093CA022093C902292F30E098307E
:1025200008F0F4C081E001C0880F9A95EAF7809323
:10253000CB028091D2029091D3020197F1F7809162
:10254000D0029091D102892B49F1E091E401F09100
:10255000E50182E0E63BF80709F1309739F0A389FD
:10256000B4899C918589809589238C938091D4022C
:102570008E7F8093D4021092E3011092E20186EBE9
:1025800092E09093E5018093E401E091C902F0911B
:10259000CA0280819091CB02892B808385E5E82E49
:1025A00081E0F82E08EE11E0D0E0C0E09FE0A92E17
:1025B00091E0B92E2EEFD22E8DE090E00E94AF1365
:1025C000FC01D7018D917D011282B182A0828187A9
:1025D000CE0182509E4F9487838710861782D286C1
:1025E000D801ED93FD938D012296C031D10521F7DD
:1025F00087E090E00E94AF137C0183E591E0F70152
:102600009183808386EB90E00E94AF13EC018BE115
:1026100091E09983888386E18C8388EF91E09B83A6
:102620008A8318E01D8388EE91E09F838E8319864C
:102630001886FB86EA86198A8EE690E09B8B8A8B49
:1026400086EB92E09D8B8C8B83E08E8B61E00E9409
:10265000240160E08E890E94F6001C8EFE01E9597B
:10266000FF4F10821182128213820E94CF07FE0157
:10267000E559FF4F918380831D861C861E861F8629
:1026800083E8888BCE010E9434091092E701809183
:10269000E601877F8B7F8093E601FE01E359FF4FC0
:1026A000108288E19EE00FB6F894A89580936000B0
:1026B0000FBE9093600087E391E099838883D09365
:1026C0000F02C0930E02CE010E94F2061C8762E048
:1026D00088E00E9424018DE08D8761E00E94240142
:1026E000C0E0D0E080910E0290910F02DC01ED91EC
:1026F000FC910190F081E02D0995209799F30E94BB
:10270000D601882379F30E940000ECCF9E3040F47C
:102710002850310981E001C0880F2A95EAF707CFD8
:102720002E503109F7CF83E791E09093B702809361
:10273000B6028091E4019091E501865B924071F4CC
:10274000E091C902F091CA0290818091CB028095FC
:10275000892380831092E5011092E40108950F937C
:102760001F93CF93DF938230910510F482E090E0C5
:10277000E091D702F091D80230E020E0B0E0A0E094
:10278000309799F42115310509F44AC0281B390BFB
:1027900024303105D8F58A819B816115710589F155
:1027A000FB0193838283FE0111C04081518102812C
:1027B000138148175907E0F04817590799F4109703
:1027C00061F012960C93129713961C933296CF01D8
:1027D000DF91CF911F910F9108950093D70210932D
:1027E000D802F4CF2115310551F04217530738F0C4
:1027F000A901DB019A01BD01DF01F801C1CFEF01A1
:10280000F9CF9093D8028093D702CDCFFE01E20F8B
:10281000F31F819391932250310939832883D7CFB5
:102820002091D5023091D602232B41F4209103014F
:10283000309104013093D6022093D50220910101FA
:10284000309102012115310541F42DB73EB7409179
:10285000050150910601241B350BE091D502F09142
:10286000D602E217F307A0F42E1B3F0B28173907F7
:1028700078F0AC014E5F5F4F2417350748F04E0FDC
:102880005F1F5093D6024093D502819391939FCFBF
:10289000F0E0E0E09CCFCF93DF930097E9F0FC01FC
:1028A000329713821282A091D702B091D802ED0123
:1028B00030E020E01097A1F420813181820F931F36
:1028C0002091D5023091D6022817390709F061C04E
:1028D000F093D602E093D502DF91CF910895EA01FB
:1028E000CE17DF07E8F54A815B819E01411551054E
:1028F000B1F7E901FB83EA8349915991C40FD51FD0
:10290000EC17FD0761F4808191810296840F951F79
:10291000E90199838883828193819B838A83F0E094
:10292000E0E012968D919C9113970097B9F52D9147
:102930003C911197CD010296820F931F2091D502F1
:102940003091D6022817390739F6309751F5109291
:10295000D8021092D702B093D602A093D502BCCF72
:10296000D383C28340815181840F951FC817D90733
:1029700061F44E5F5F4F88819981480F591F5183E1
:1029800040838A819B81938382832115310509F0DD
:10299000B0CFF093D802E093D7029ECFFD01DC01C7
:1029A000C0CF13821282D7CF8F929F92AF92BF92E5
:1029B000CF92DF92EF92FF92CF93DF93EC01688189
:1029C00079818A819B81611571058105910521F4C9
:1029D00064E279ED8BE597E02DE133EF41E050E0E3
:1029E0000E948E1549015A019B01AC01A7EAB1E48E
:1029F0000E94AD156B017C01ACEEB4EFA501940112
:102A00000E94BB15C60ED71EE81EF91EF7FE06C0B3
:102A100081E0C81AD108E10880E8F80AC882D982A2
:102A2000EA82FB82C701B6019F77DF91CF91FF90C9
:102A3000EF90DF90CF90BF90AF909F908F900895D0
:102A40008F929F92AF92BF92CF92DF92EF92FF92BE
:102A500060910701709108018091090190910A012C
:102A6000611571058105910521F464E279ED8BE52D
:102A700097E02DE133EF41E050E00E948E154901CF
:102A80005A019B01AC01A7EAB1E40E94AD156B01AC
:102A90007C01ACEEB4EFA50194010E94BB15C60EFB
:102AA000D71EE81EF91EF7FE06C081E0C81AD1083D
:102AB000E10880E8F80AC0920701D0920801E0928C
:102AC0000901F0920A01C701B6019F77FF90EF90CC
:102AD000DF90CF90BF90AF909F908F9008956093BC
:102AE0000701709308018093090190930A010895EA
:102AF000F999FECF92BD81BDF89A992780B50895C6
:102B0000262FF999FECF1FBA92BD81BD20BD0FB609
:102B1000F894FA9AF99A0FBE01960895052E97FB3C
:102B20001EF400940E94A51557FD07D00E94C01501
:102B300007FC03D04EF40C94A515509540953095A4
:102B400021953F4F4F4F5F4F089590958095709519
:102B500061957F4F8F4F9F4F08950E94E215A59F6B
:102B6000900DB49F900DA49F800D911D1124089588
:102B7000B7FF0C94AD150E94AD15821B930B089501
:102B8000A1E21A2EAA1BBB1BFD010DC0AA1FBB1F71
:102B9000EE1FFF1FA217B307E407F50720F0A21BE3
:102BA000B30BE40BF50B661F771F881F991F1A9450
:102BB00069F760957095809590959B01AC01BD017A
:102BC000CF010895A29FB001B39FC001A39F700DD4
:102BD000811D1124911DB29F700D811D1124911D25
:102BE000089597FB072E16F4009407D077FD09D0BF
:102BF0000E94051607FC05D03EF4909581959F4FE5
:102C00000895709561957F4F0895AA1BBB1B51E1F4
:102C100007C0AA1FBB1FA617B70710F0A61BB70B4C
:102C2000881F991F5A95A9F780959095BC01CD01F1
:102C30000895EE0FFF1F0590F491E02D0994FB011C
:102C4000DC0102C001900D9241505040D8F7089528
:102C5000DC0101C06D9341505040E0F7089510E051
:102C6000C3E6D0E004C0FE010E9419162196C436C6
:082C7000D107C9F7F894FFCF6A
:102C7800FF0000D902800001000000000000009B56
:102C8800058F051C05E705000000007C0998027AFD
:102C9800027902030DC2027F08D30C0203500DF221
:102CA80006B902000000007C0998027A02B7060300
:102CB8000DC2027F08D30C0203500DF206B90200C0
:102CC80000000016070E0F101112130A0B00000067
:102CD800000C026C0199015902CA01A801BC01004B
:102CE80000000023066C01B40679027B0693060BEC
:022CF8000600D4
:00000001FF
